:020000040800F2
:100000008006002089010008430400083B04000822
:100010003F040008430200085507000800000000E4
:10002000000000000000000000000000DD050008E6
:1000300047020008000000008D040008F1060008D7
:10004000A3010008A3010008A3010008A301000800
:10005000A30100085D050008A3010008A301000832
:10006000A3010008A3010008A3010008A3010008E0
:10007000A3010008A3010008A3010008A3010008D0
:10008000A3010008A3010008A3010008A3010008C0
:10009000A3010008A3010008A3010008A3010008B0
:1000A000A3010008A3010008A3010008A3010008A0
:1000B000A3010008A3010008A3010008A301000890
:1000C000A3010008A3010008A3010008A301000880
:1000D000A3010008A3010008A3010008A301000870
:1000E000A3010008A3010008A301000800F002F822
:1000F00000F03AF80AA090E8000C82448344AAF188
:100100000107DA4501D100F02FF8AFF2090EBAE885
:100110000F0013F0010F18BFFB1A43F0010318473B
:100120000007000020070000103A24BF78C878C1FB
:10013000FAD8520724BF30C830C144BF04680C60ED
:10014000704700000023002400250026103A28BF35
:1001500078C1FBD8520728BF30C148BF0B60704739
:100160001FB51FBD10B510BD00F031F81146FFF7E7
:10017000F7FF00F043FB00F04FF803B4FFF7F2FF86
:1001800003BC00F057F800000948804709480047C1
:10019000FEE7FEE7FEE7FEE7FEE7FEE7FEE7FEE737
:1001A000FEE7FEE704480549054A064B7047000094
:1001B000F5060008ED000008800000208006002001
:1001C000800200208002002070477047704775460B
:1001D00000F02CF8AE4605006946534620F00700B3
:1001E000854618B020B5FFF7DDFFBDE820404FF091
:1001F00000064FF000074FF000084FF0000B21F011
:100200000701AC46ACE8C009ACE8C009ACE8C009DD
:10021000ACE8C0098D46704710B50446AFF30080C6
:100220002046BDE81040FFF7A8BF00000048704717
:100230001C00002001491820ABBEFEE7260002008A
:10024000704700BFFEE7704710B56FF0040000F084
:100250003BFA08480068C0080749B0FBF1F00749BD
:100260000860084600684FF47A7148430449086002
:1002700010BD00000000002040420F0014000020CC
:1002800018000020B0F5E96F00DD7047114A1268D0
:1002900042434FF0E0235A6100229A611A461269E4
:1002A00042F001021A6100BF4FF0E022116901F033
:1002B00001021AB101F48032002AF5D04FF0E02299
:1002C000126922F001024FF0E0231A6100229A61C4
:1002D00000BFDAE7180000200146114A12684A43BD
:1002E0004FF0E0235A6100229A611A46126942F0E7
:1002F00001021A6100BF4FF0E022106900F0010214
:100300001AB100F48032002AF5D04FF0E0221269D1
:1003100022F001024FF0E0231A6100229A61704737
:10032000140000202DE9F04102460025002600209F
:1003300000230024002791F803C00CF00F0591F86A
:1003400003C00CF0100CBCF1000F03D091F802C0F8
:100350004CEA050591F800C0BCF1000F31D01468DB
:1003600000202BE04FF0010C0CFA00F3B1F800C0B4
:100370000CEA03069E4220D183004FF00F0C0CFACA
:1003800003F7BC4305FA03FC4CEA040491F803C0EC
:10039000BCF1280F06D14FF0010C0CFA00FCC2F89A
:1003A00014C00AE091F803C0BCF1480F05D14FF02A
:1003B000010C0CFA00FCC2F810C0401C0828D1D374
:1003C0001460B1F800C0BCF1FF0F34DD54680020A8
:1003D0002EE000F1080C4FF0010808FA0CF3B1F818
:1003E00000C00CEA03069E4221D183004FF00F0C9F
:1003F0000CFA03F7BC4305FA03FC4CEA040491F839
:1004000003C0BCF1280F05D100F1080C08FA0CF864
:10041000C2F8148091F803C0BCF1480F07D100F175
:10042000080C4FF0010808FA0CF8C2F81080401CC4
:100430000828CED35460BDE8F08100BFFEE700BFBE
:10044000FEE710B5802000F057F870B14FF480300F
:1004500000F05EF80121082000F09EF80121102034
:1004600000F09AF8802000F023F810BD10B54FF48A
:10047000A06000F001F810BD02490143024A11607A
:10048000704700000000FA050CED00E07047000026
:1004900029B1064A92690243044B9A6104E0034A77
:1004A00092698243014B9A6170470000001002403C
:1004B00001498872704700000010024010B50146E3
:1004C0000022002300204A11012A02D1094C23688E
:1004D00006E0022A02D1074C236A01E0054C636A58
:1004E00001F01F02012494401C400CB1012000E0E7
:1004F000002010BD0010024001460020034A92680F
:100500000A400AB1012000E00020704700100240BC
:100510001149096821F480310F4A116011460968B8
:1005200021F480211160B0F5803F03D0B0F5802F19
:100530000ED106E00849096841F48031064A11608D
:1005400007E00549096841F4A021034A116000E071
:1005500000BF00BF704700000010024010B5082027
:10056000FFF7CAFF48B10820FFF7A2FF3120FFF7CD
:10057000A5FF10B1012000F01FF81020FFF7BCFF0D
:1005800048B11020FFF794FF3920FFF797FF10B113
:10059000022000F017F810BD29B1064A527A024332
:1005A000044B5A7204E0034A527A8243014B5A7256
:1005B00070470000001002400149086670470000C3
:1005C0000000424201460020034A506820F0030028
:1005D000084350607047000000100240704710B59B
:1005E00000F002F810BD00000CB500200190009052
:1005F0003348006840F480303149086000BF30481B
:10060000006800F4003000900198401C01900098B0
:1006100018B90198B0F5A06FF1D12948006800F42D
:10062000003010B10120009001E0002000900098FF
:10063000012843D12348006840F010002149086098
:100640000846006820F0030008600846006840F093
:10065000020008601A484068194948600846406826
:1006600048600846406840F480604860084640683A
:1006700020F47C1048600846406840F4E810486068
:100680000846006840F08070086000BF0C480068B1
:1006900000F000700028F9D00948406820F00300FD
:1006A000074948600846406840F00200486000BFC3
:1006B0000348406800F00C000828F9D10CBD000088
:1006C0000010024000200240042808D14FF0E02131
:1006D000096941F004014FF0E022116107E04FF099
:1006E000E021096921F004014FF0E0221161704717
:1006F0007047000010B51348006840F00100114930
:10070000086008464068104908400E49486008469D
:1007100000680E4908400B4908600846006820F44C
:10072000802008600846406820F4FE0048604FF4CE
:100730001F008860FFF753FF4FF000600449086016
:1007400010BD0000001002400000FFF8FFFFF6FEA1
:1007500008ED00E000BFFEE708B501210820FFF723
:1007600097FE10208DF803002020ADF80000032034
:100770008DF8020069460448FFF7D4FDFFF776FEC6
:10078000FFF762FD08BD0000000C014070B5044693
:100790000120184908600A20FFF774FD002016495F
:1007A000C1F894010420FFF76DFD00251EE0012033
:1007B0001049086004F0010058B14FF49660FFF74B
:1007C0008BFD00200B4908604FF4C870FFF784FDD3
:1007D0000AE04FF4C870FFF77FFD0020054908606C
:1007E0004FF49660FFF778FD64106D1C082DDEDB7A
:1007F00070BD0000948121420080214210B5FFF7B6
:10080000ABFF0A20FFF7C2FF0120FFF7BFFF0B205D
:10081000FFF7BCFF1120FFF7B9FF002010BD00005B
:1008200040080008000000201C000000280100080B
:100830005C0800081C000020640600004401000859
:1008400000A24A04000000000000000001020304AE
:0C0850000607080900000000000000007E
:04000005080000ED02
:00000001FF
