:020000040800F2
:100000004007002089010008AB050008A30500088F
:10001000A7050008F5030008570D000800000000C0
:100020000000000000000000000000008908000837
:10003000F90300080000000065060008D90900085F
:10004000A3010008A3010008A3010008A301000800
:10005000A301000809080008A3010008A301000883
:10006000A3010008A3010008A3010008A3010008E0
:10007000A3010008A3010008A3010008A3010008D0
:10008000A3010008A3010008A3010008A3010008C0
:10009000A3010008A3010008A3010008A3010008B0
:1000A000A3010008A3010008A3010008A3010008A0
:1000B000A3010008A3010008A3010008A301000890
:1000C000A3010008A3010008A3010008A301000880
:1000D000A3010008E90A0008A3010008A301000821
:1000E000A3010008A3010008A301000800F002F822
:1000F00000F03AF80AA090E8000C82448344AAF188
:100100000107DA4501D100F02FF8AFF2090EBAE885
:100110000F0013F0010F18BFFB1A43F0010318473B
:10012000940C0000B40C0000103A24BF78C878C1C9
:10013000FAD8520724BF30C830C144BF04680C60ED
:10014000704700000023002400250026103A28BF35
:1001500078C1FBD8520728BF30C148BF0B60704739
:100160001FB51FBD10B510BD00F012F91146FFF705
:10017000F7FF00F0F5FD00F030F903B4FFF7F2FFF0
:1001800003BC00F0EAFD0000094880470948004729
:10019000FEE7FEE7FEE7FEE7FEE7FEE7FEE7FEE737
:1001A000FEE7FEE704480549054A064B7047000094
:1001B000DD090008ED000008400100204007002094
:1001C0004003002040030020704710B5431C02E0AC
:1001D00010F8011B71B18107FAD14FF0013202C84A
:1001E0008C1A8C4314EAC211F9D0C01A0A0603D043
:1001F000C01E10BDC01A10BD0A0401D0801E10BD63
:100200000902FCD0401E10BD032A40F2308010F0DD
:10021000030C00F0158011F8013BBCF1020F6244A1
:1002200098BF11F801CB00F8013B38BF11F8013B32
:10023000A2F1040298BF00F801CB38BF00F8013BDF
:1002400011F0030300F04B80083AC0F0088051F829
:10025000043B083A51F804CBA0E80810F5E7121D5A
:100260005CBF51F8043B40F8043BAFF30080D20779
:1002700024BF11F8013B11F801CB48BF11F8012B45
:1002800024BF00F8013B00F801CB48BF00F8012B68
:1002900070474FF000020429C0F0128010F0030CE8
:1002A00000F05180CCF1040CBCF1020F18BF00F833
:1002B000012BA8BF20F8022BA1EB0C0100F043B8E2
:1002C0005FEAC17C24BF00F8012B00F8012B48BF76
:1002D00000F8012B7047704770477047704710B5A2
:1002E000203AC0F00B80B1E81850203AA0E818502E
:1002F000B1E81850A0E81850BFF4F5AF5FEA027CEF
:1003000024BFB1E81850A0E8185044BF18C918C05D
:10031000BDE810405FEA827C24BF51F8043B40F8FE
:10032000043B08BF7047D20728BF31F8023B48BFE3
:1003300011F8012B28BF20F8023B48BF00F8012B21
:1003400070474FF0000200B5134694469646203998
:1003500022BFA0E80C50A0E80C50B1F12001BFF47E
:10036000F7AF090728BFA0E80C5048BF0CC05DF8E4
:1003700004EB890028BF40F8042B08BF704748BF32
:1003800020F8022B11F0804F18BF00F8012B7047A6
:10039000754600F02BF8AE4605006946534620F03E
:1003A0000700854618B020B5FFF7FCFEBDE82040E9
:1003B0004FF000064FF000074FF000084FF0000B21
:1003C00021F00701AC46ACE8C009ACE8C009ACE8D4
:1003D000C009ACE8C0098D46704710B50446AFF3BC
:1003E00000802046BDE81040FFF7C7BE00487047B8
:1003F000DC00002000BFFEE77047000010B56FF082
:10040000040000F0D5FA08480068C0080749B0FBAE
:10041000F1F007490860084600684FF47A714843D4
:100420000449086010BD00002800002040420F0071
:100430000000002004000020B0F5E96F01DD4FF45A
:10044000E960114A126842434FF0E0235A610022EA
:100450009A611A46126942F001021A6100BF4FF018
:10046000E022116901F001021AB101F48032002A80
:10047000F5D04FF0E022126922F001024FF0E023A4
:100480001A6100229A617047040000202DE9F041B2
:10049000024600250026002000230024002791F8B2
:1004A00003C00CF00F0591F803C00CF0100CBCF168
:1004B000000F03D091F802C04CEA050591F800C086
:1004C000BCF1000F31D0146800202BE04FF0010C7C
:1004D0000CFA00F3B1F800C00CEA03069E4220D1EA
:1004E00083004FF00F0C0CFA03F7BC4305FA03FC32
:1004F0004CEA040491F803C0BCF1280F06D14FF078
:10050000010C0CFA00FCC2F814C00AE091F803C018
:10051000BCF1480F05D14FF0010C0CFA00FCC2F8F9
:1005200010C0401C0828D1D31460B1F800C0BCF141
:10053000FF0F34DD546800202EE000F1080C4FF06E
:10054000010808FA0CF3B1F800C00CEA03069E4259
:1005500021D183004FF00F0C0CFA03F7BC4305FACE
:1005600003FC4CEA040491F803C0BCF1280F05D148
:1005700000F1080C08FA0CF8C2F8148091F803C0D6
:10058000BCF1480F07D100F1080C4FF0010808FA40
:100590000CF8C2F81080401C0828CED35460BDE887
:1005A000F08100BFFEE700BFFEE710B5802000F03D
:1005B000F9F870B14FF4803000F000F90121082003
:1005C00000F040F90121102000F03CF9802000F0FB
:1005D0005BF810BD10B54FF4A06000F039F810BD05
:1005E00070B5002100230F22C47804B3154C246891
:1005F00004F4E064C4F5E064210AC1F10403CA40D4
:10060000447804FA03F184781440214309010E4C24
:100610000678A155047804F01F050124AC40057844
:100620006D11AD0005F1E025C5F8004109E0047841
:1006300004F01F050124AC40044D0678761145F8FE
:10064000264070BD0CED00E000E400E080E100E039
:1006500002490143024A1160704700000000FA0598
:100660000CED00E07047000029B1064A9269024390
:10067000044B9A6104E0034A92698243014B9A61F8
:100680007047000000100240014988727047000066
:100690000010024030B500210022002400232D4D1F
:1006A0006D6805F00C0121B1042905D0082923D17A
:1006B00005E0294D056022E0274D05601FE0254D2E
:1006C0006D6805F47012234D6D6805F480340225C1
:1006D00005EB92421CB9214D554305600BE01D4DC1
:1006E0006D6805F400351DB11C4D5543056002E0F1
:1006F000194D5543056002E0174D056000BF00BF6E
:10070000144D6D6805F0F0010909154D6B5C056825
:10071000DD4045600F4D6D6805F4E061090A104D3C
:100720006B5C4568DD4085600A4D6D6805F460517D
:10073000C90A0B4D6B5C4568DD40C560054D6D68B1
:1007400005F44041890B074D6B5CC568B5FBF3F5BB
:10075000056130BD0010024000127A0000093D0022
:10076000080000201800002010B5014600220023D8
:1007700000204A11012A02D1094C236806E0022A0E
:1007800002D1074C236A01E0054C636A01F01F02A5
:10079000012494401C400CB1012000E0002010BD59
:1007A0000010024001460020034A92680A400AB144
:1007B000012000E000207047001002401149096844
:1007C00021F480310F4A11601146096821F480211B
:1007D0001160B0F5803F03D0B0F5802F0ED106E058
:1007E0000849096841F48031064A116007E005496B
:1007F000096841F4A021034A116000E000BF00BF76
:10080000704700000010024010B50820FFF7CAFF33
:1008100048B10820FFF738FF3120FFF7A5FF10B1DE
:10082000012000F01FF81020FFF7BCFF48B1102096
:10083000FFF72AFF3920FFF797FF10B1022000F0E1
:1008400017F810BD29B1064A527A0243044B5A7276
:1008500004E0034A527A8243014B5A727047000007
:100860000010024001490866704700000000424243
:1008700001460020034A506820F0030008435060FE
:10088000704700000010024070472DE9F041074614
:100890000D461646002412E000BF8021384600F0C5
:1008A00088F90028F9D0295D384600F050FA00BFD9
:1008B0004021384600F07DF90028F9D0641CB4428C
:1008C000EADBBDE8F08110B500F002F810BD0000D1
:1008D0000CB50020019000903348006840F480304F
:1008E0003149086000BF3048006800F400300090D3
:1008F0000198401C0190009818B90198B0F5A06FBC
:10090000F1D12948006800F4003010B101200090B6
:1009100001E0002000900098012843D1234800689E
:1009200040F01000214908600846006820F00300EC
:1009300008600846006840F0020008601A484068F5
:10094000194948600846406848600846406840F4D5
:10095000806048600846406820F47C104860084683
:10096000406840F4E81048600846006840F0807035
:10097000086000BF0C48006800F000700028F9D043
:100980000948406820F0030007494860084640686D
:1009900040F00200486000BF0348406800F00C00CF
:1009A0000828F9D10CBD00000010024000200240D0
:1009B000042808D14FF0E021096941F004014FF00B
:1009C000E022116107E04FF0E021096921F0040104
:1009D0004FF0E022116170477047000010B51348D6
:1009E000006840F00100114908600846406810495D
:1009F00008400E494860084600680E4908400B4907
:100A000008600846006820F48020086008464068B6
:100A100020F4FE0048604FF41F008860FFF753FF8A
:100A20004FF000600449086010BD00000010024053
:100A30000000FFF8FFFFF6FE08ED00E000B587B00C
:100A400001210420FFF710FE4FF40070ADF81800EC
:100A500018208DF81B0003208DF81A0006A92048E5
:100A6000FFF714FD4FF48060ADF8180004208DF8F6
:100A70001B0003208DF81A0006A91948FFF706FD90
:100A800001218803FFF7F0FD4FF4E13002900C20C4
:100A9000ADF812000020ADF80C00ADF81000ADF874
:100AA0000E00ADF8140002A90E4800F0DFF8012294
:100AB00040F225510B4800F0B3F80121094800F03D
:100AC0006CF825208DF8040001208DF807008DF8C2
:100AD00005008DF8060001A8FFF782FD07B000BDF4
:100AE000000801400038014010B540F225511F4870
:100AF00000F06CF8002837D01D480068802806DB1D
:100B000080211C48FFF7C5FB00201949086040F20E
:100B10002551164800F032F8144800F013F9044645
:100B20001448134A1268845411480068401C104944
:100B3000086008460068401E0E49085C0A2813D168
:100B40000B480068801E085C0D280DD108480088FD
:100B500081B20848084A1268904780210548FFF78B
:100B600098FB00200249086010BD000000380140D9
:100B7000240000203C0000202000002010B50022AE
:100B8000002340F66A14A14200D100BF0A120124DA
:100B90009440A3B2DC43048010BD21B1828942F4A9
:100BA0000052828104E082894DF6FF731A408281EF
:100BB000704702460020B1F5007F00D100BF1388C6
:100BC0000B400BB1012000E00020704770B50246D9
:100BD000002400230025002040F66A16B14200D10F
:100BE00000BFC1F3421501F01F03012606FA03F30B
:100BF000012D02D19689334006E0022D02D1168ADA
:100C0000334001E0968A33400C12012606FA04F4C0
:100C10001688344013B10CB1012000E0002070BDF3
:100C2000F0B50346002400260025002040F66A1790
:100C3000B94200D100BF1846C1F3421401F01F06AB
:100C4000012707FA06F5012C01D10C3004E0022C33
:100C500001D1103000E014301AB107682F4307604B
:100C600002E00768AF430760F0BD00002DE9F047E0
:100C700086B005460E460024A24600BFA1460027C6
:100C8000B08900B100BF2F462C8A4CF6FF7004409B
:100C9000F08804432C82AC894EF6F3100440B088EF
:100CA00031890843718908430443AC81AC8A4FF60B
:100CB000FF400440B0890443AC8201A8FFF7EAFC7E
:100CC0001F48874202D1DDF810A001E0DDF80CA03A
:100CD000A88900F4004040B10AEBCA0000EB0A10FA
:100CE00031684900B0FBF1F807E00AEBCA0000EBFD
:100CF0000A1031688900B0FBF1F86420B8FBF0F00D
:100D000004012009642101FB1089A88900F4004036
:100D100040B1322000EBC900B0FBF1F000F0070059
:100D2000044308E0322000EB09106421B0FBF1F02D
:100D300000F00F0004432C8106B0BDE8F0870000EE
:100D40000038014001468888C0F308007047C1F3AD
:100D500008028280704700BFFEE700BF70470000B6
:100D6000FFF74CFBFFF736FCFFF768FE0448054928
:100D7000086003E040F2DC50FFF75EFBFAE700009A
:100D8000890D00082000002070B504460D462A4653
:100D900021460648FFF738FA0448FFF716FA86B2EC
:100DA000324602490248FFF770FD70BDBC000020CA
:100DB00000380140D40D0008000000203C00000075
:100DC00028010008100E00083C0000200407000065
:100DD00044010008000000000000000000000000C6
:100DE00001020304010203040607080902040608BD
:100DF00000000000000000000000000000A24A0403
:100E000000000000000000000102030406070809BA
:04000005080000ED02
:00000001FF
