:020000040800F2
:10000000904B002021020008530400084B04000814
:100010004F040008270300084507000800000000FF
:10002000000000000000000000000000890100083E
:100030002B03000800000000CD010008B1060008F5
:100040003B0200083B0200083B0200083B0200089C
:100050003B020008490500083B0200083B0200087B
:100060003B0200083B0200083B0200083B0200087C
:100070003B0200083B0200083B0200083B0200086C
:100080003B0200083B0200083B0200083B0200085C
:100090003B0200083B0200083B0200083B0200084C
:1000A0003B0200083B0200083B0200083B0200083C
:1000B0003B0200083B0200083B0200083B0200082C
:1000C0003B0200083B0200083B0200083B0200081C
:1000D0003B0200083B0200083B0200083B0200080C
:1000E0003B0200083B0200083B02000800F002F857
:1000F00000F03AF80AA090E8000C82448344AAF188
:100100000107DA4501D100F02FF8AFF2090EBAE885
:100110000F0013F0010F18BFFB1A43F0010318473B
:10012000C0110000E0110000103A24BF78C878C167
:10013000FAD8520724BF30C830C144BF04680C60ED
:10014000704700000023002400250026103A28BF35
:1001500078C1FBD8520728BF30C148BF0B60704739
:100160001FB51FBD10B510BD00F0A4F81146FFF774
:10017000F7FF00F009FB00F0C2F803B4FFF7F2FF4D
:1001800003BC00F0C9F80000224B19680868B0E809
:10019000F00F80F30988BFF36F8F4FF0000080F3FA
:1001A00011884EF00D0E70470000000006480068F0
:1001B000006880F3088862B661B6BFF34F8FBFF363
:1001C0006F8F00DF00BF00BF08ED00E0EFF3098094
:1001D000BFF36F8F0F4B1A6820E9F00F106008B55E
:1001E0004FF0BF0080F31188BFF34F8FBFF36F8FC5
:1001F00000F082FE4FF0000080F31188BDE8084057
:1002000019680868B0E8F00F80F30988BFF36F8FB2
:10021000704700BF00000020EFF30580704700002A
:100220000948804709480047FEE7FEE7FEE7FEE78A
:10023000FEE7FEE7FEE7FEE7FEE7FEE704480549C6
:10024000054A064B70470000E5060008ED0000086F
:1002500090450020904B00209047002090470020C0
:100260004FF0000200B5134694469646203922BF4F
:10027000A0E80C50A0E80C50B1F12001BFF4F7AF9A
:10028000090728BFA0E80C5048BF0CC05DF804EB7C
:10029000890028BF40F8042B08BF704748BF20F8EA
:1002A000022B11F0804F18BF00F8012B70477047E8
:1002B00070477047754600F02BF8AE46050069465A
:1002C000534620F00700854618B020B5FFF7B6FF6B
:1002D000BDE820404FF000064FF000074FF0000847
:1002E0004FF0000B21F00701AC46ACE8C009ACE8C8
:1002F000C009ACE8C009ACE8C0098D46704710B52C
:100300000446AFF300802046BDE81040FFF735BF3C
:10031000004870472C45002001491820ABBEFEE77D
:1003200026000200704700BFFEE770472DE9F0414C
:10033000024600250026002000230024002791F813
:1003400003C00CF00F0591F803C00CF0100CBCF1C9
:10035000000F03D091F802C04CEA050591F800C0E7
:10036000BCF1000F31D0146800202BE04FF0010CDD
:100370000CFA00F3B1F800C00CEA03069E4220D14B
:1003800083004FF00F0C0CFA03F7BC4305FA03FC93
:100390004CEA040491F803C0BCF1280F06D14FF0D9
:1003A000010C0CFA00FCC2F814C00AE091F803C07A
:1003B000BCF1480F05D14FF0010C0CFA00FCC2F85B
:1003C00010C0401C0828D1D31460B1F800C0BCF1A3
:1003D000FF0F34DD546800202EE000F1080C4FF0D0
:1003E000010808FA0CF3B1F800C00CEA03069E42BB
:1003F00021D183004FF00F0C0CFA03F7BC4305FA30
:1004000003FC4CEA040491F803C0BCF1280F05D1A9
:1004100000F1080C08FA0CF8C2F8148091F803C037
:10042000BCF1480F07D100F1080C4FF0010808FAA1
:100430000CF8C2F81080401C0828CED35460BDE8E8
:10044000F081416170470161704700BFFEE700BF66
:10045000FEE710B5802000F045F870B14FF4803011
:1004600000F04CF80121082000F08CF80121102048
:1004700000F088F8802000F011F810BD29B1064A7C
:1004800092690243044B9A6104E0034A92698243F1
:10049000014B9A61704700000010024001498872C8
:1004A000704700000010024010B5014600220023F2
:1004B00000204A11012A02D1094C236806E0022AD1
:1004C00002D1074C236A01E0054C636A01F01F0268
:1004D000012494401C400CB1012000E0002010BD1C
:1004E0000010024001460020034A92680A400AB107
:1004F000012000E000207047001002401149096807
:1005000021F480310F4A11601146096821F48021DD
:100510001160B0F5803F03D0B0F5802F0ED106E01A
:100520000849096841F48031064A116007E005492D
:10053000096841F4A021034A116000E000BF00BF38
:10054000704700000010024010B50820FFF7CAFFF6
:1005500048B10820FFF7A2FF3120FFF7A5FF10B137
:10056000012000F01FF81020FFF7BCFF48B1102059
:10057000FFF794FF3920FFF797FF10B1022000F03A
:1005800017F810BD29B1064A527A0243044B5A7239
:1005900004E0034A527A8243014B5A7270470000CA
:1005A0000010024001490866704700000000424206
:1005B00001460020034A506820F0030008435060C1
:1005C000704700000010024010B500F001F810BDA7
:1005D0000CB50020019000903348006840F4803052
:1005E0003149086000BF3048006800F400300090D6
:1005F0000198401C0190009818B90198B0F5A06FBF
:10060000F1D12948006800F4003010B101200090B9
:1006100001E0002000900098012843D123480068A1
:1006200040F01000214908600846006820F00300EF
:1006300008600846006840F0020008601A484068F8
:10064000194948600846406848600846406840F4D8
:10065000806048600846406820F47C104860084686
:10066000406840F4E81048600846006840F0807038
:10067000086000BF0C48006800F000700028F9D046
:100680000948406820F00300074948600846406870
:1006900040F00200486000BF0348406800F00C00D2
:1006A0000828F9D10CBD00000010024000200240D3
:1006B00010B500BFBF2080F31188BFF34F8FBFF389
:1006C0006F8F00BF00F096FC18B14FF080500449C6
:1006D000086000BF002080F3118800BF10BD00003B
:1006E00004ED00E010B51348006840F00100114926
:1006F000086008464068104908400E4948600846AE
:1007000000680E4908400B4908600846006820F45C
:10071000802008600846406820F4FE0048604FF4DE
:100720001F008860FFF750FF4FF000600449086029
:1007300010BD0000001002400000FFF8FFFFF6FEB1
:1007400008ED00E000BFFEE710B54FF4005102488D
:10075000FFF779FE10BD00000010014008B501212F
:100760001020FFF78BFE10208DF803004002ADF83B
:10077000000003208DF8020069460248FFF7D6FD0D
:1007800008BD0000001001401CB5FFF7E7FF074857
:10079000022100230A02CDE9001005A1074800F05C
:1007A000F5FB00F06BFB00BFFEE7000060000020DF
:1007B0007461736B5465737400000000C107000816
:1007C0000BE0FFF7C1FF4FF4FA7000F03DFB00F0C3
:1007D00005F84FF4FA7000F037FBF2E710B54FF46C
:1007E00000510248FFF72DFE10BD0000001001402F
:1007F0002DE9F04105460E46264807682648006860
:10080000001D00F08FFA50B92348006890F82C10B2
:100810000120884021490968814320480160681C03
:10082000D8B9D6B11E4948681B49096888601A4979
:1008300082680968CA6018490968091D82685160A0
:1008400015490968091D8160154A134909684A61FB
:1008500011460968491C11601AE07C190E480068AD
:100860004460BC4207D20C480168091D0D4800686D
:1008700000F07CFA0CE008480168091D0A4800688D
:1008800000F074FA09480068844201D20748046005
:10089000BDE8F081140000200000002018000020B6
:1008A0001801002008000020040000203000002073
:1008B00010B5044600F074FA2F480068401C2E4919
:1008C00008602E48006840B92C480460084600685B
:1008D00001280DD100F016F90AE02948006838B95E
:1008E00026480068C06AE16A884201D8234804604B
:1008F00024480068401C2349086094F82C1001200B
:1009000088402149096808431F490860E16A01EBF2
:1009100081011E4A02EB81014868A0608268E260A2
:10092000211D826851608160E16A01EB8101174AF3
:1009300002EB81026261E16A01EB8101134A52F824
:100940002110491CE26A02EB8202104B43F822108C
:1009500000F038FA0A48006868B108480068C06AC0
:10096000E16A884207D24FF0805009490860BFF31E
:100970004F8FBFF36F8F10BD1000002000000020CC
:100980001C0000202C000020180000206400002023
:1009900004ED00E010B516E000F002FA0C48C06863
:1009A000C468201D00F0BEF90A480068401E0949CD
:1009B000086009480068401E0749086000F002FA14
:1009C000204600F00BF8044800680028E4D110BD70
:1009D00004010020100000200C00002010B5044687
:1009E000206B00F0FFF9204600F0FCF910BD00007C
:1009F00030B54FF48843154800F007042CB1C01DF2
:100A000020F00700114C041B1B1B0246104C2260F7
:100A100000240F4D6C60D018083820F007000D4CF2
:100A2000206000240B4D2D686C600A4D2D682C60F1
:100A30001146441A4C60074C24680C60064D4C6803
:100A40002C60064D4C682C6030BD00002C0100204D
:100A50004000002048000020500000204C000020F2
:100A600000BFFFF797FF064800680128F9D94FF04B
:100A7000805004490860BFF34F8FBFF36F8FF0E7DA
:100A80006400002004ED00E02DE9FF5F80460E4683
:100A90009146DDE90E7A109CA9F10100216B01EB72
:100AA000800B2BF0070B7EB1002507E0715D04F190
:100AB00034004155705D00B902E06D1C102DF5D376
:100AC00000BF002143200155052F00D30427E76212
:100AD000201D00F048F904F1180000F044F92461E9
:100AE000C7F10500A061646241465846039A00F0D0
:100AF00007F92060BAF1000F01D0CAF80040BDE844
:100B0000FF9F000010B5002407E004EB84010F4AAA
:100B100002EB810000F01AF9641C052CF5D30C4897
:100B200000F014F90B4800F011F90B4800F00EF931
:100B30000A4800F00BF90A4800F008F9044809498E
:100B4000086004480849086010BD000064000020E7
:100B5000C8000020DC000020F0000020040100207C
:100B600018010020040000200800002010B50146F4
:100B7000164800E0006803688B42FBD302464368D6
:100B800013448B4204D143684C68234443600146BC
:100B90000A464B6813440468A34211D10C4C036805
:100BA0002468A34208D04B680468646823444B60FF
:100BB00003681B680B6005E0054B1B680B6001E0D8
:100BC00003680B60884200D0016010BD4000002027
:100BD0004800002009480068006808B9012000E0CA
:100BE000002020B14FF0FF300549086005E00348C0
:100BF0000068C0680068024908607047040000206F
:100C00003000002000BFBF2080F31188BFF34F8F5A
:100C1000BFF36F8F00BF00BFFEE700002DE9F04774
:100C200005464FF0000900F05FF93048006808B948
:100C3000FFF7DEFE75B105F00700C0F11008C8F13E
:100C4000FF30A84201D2012000E0002008B945444D
:100C500000E00025012000EBE570002841D0002DC8
:100C60003FD02348006885423BD8224E3046046876
:100C700001E0264624686068A84202D22068002865
:100C8000F7D11A48006884422BD0306800F1080977
:100C9000206830606068401B102807D967196068B9
:100CA000401B786065603846FFF760FF1049606858
:100CB0000968081A0E490860084600680E49096864
:100CC000884203D20A4800680B490860606840F017
:100CD000004060600020206008480068401C074910
:100CE000086000F04FFA4846BDE8F0874800002051
:100CF0004C00002040000020500000205400002044
:100D0000001F4FF080730360001F21F00103036098
:100D1000001F034B03601438026020387047000046
:100D2000050C000801460A69D1E901309860D1E953
:100D3000010358605068884201D1886850600020E3
:100D400008611068401E10601068704700F10801CB
:100D500041604FF0FF31816000F10801C160016125
:100D600000210160704700210161704710B5024603
:100D70000B685C1C0CB9106907E002F1080000E088
:100D80004068446824689C42FAD944684C604C68C6
:100D9000A160886041600A611468641C146010BD21
:100DA00000BFBF2080F31188BFF34F8FBFF36F8F59
:100DB00000BF03480068401C0149086070470000FC
:100DC0005C00002006480068401E0549086008468F
:100DD000006820B9002080F3118800BF00BF704771
:100DE0005C00002070B506463546E6B1083D2C464D
:100DF0006068C00FB8B12068A8B9606820F00040F2
:100E0000606000F071F808496068096808440649A4
:100E100008602046FFF7AAFE04480068401C03490A
:100E2000086000F0AFF970BD4C00002058000020B1
:100E300000204FF0E02108618861024848610720E6
:100E4000086170473F19010070B50446002544B1A0
:100E500000F04AF800212046FFF7CAFC00F092F9A2
:100E600005463DB94FF0805003490860BFF34F8FEE
:100E7000BFF36F8F70BD000004ED00E01CB5124899
:100E800000210B468022CDE9001010A1114800F08E
:100E90007DF80446012C14D100BFBF2080F31188D7
:100EA000BFF34F8FBFF36F8F00BF4FF0FF300A4982
:100EB000086001200949086000200949086000F025
:100EC0004BF8084800681CBD3400002049444C45DC
:100ED00000000000610A0008300000201C00002013
:100EE000140000203800002002480068401C01491E
:100EF000086070473C0000201248006818B10120CB
:100F0000114908601DE000200F4908600F48006883
:100F1000B0FA80F0C0F11F0101EB81020C4B03EB32
:100F2000820042685268426000F1080243689342BE
:100F300002D14268526842604268D268054B1A602A
:100F400000BF70473C000020240000201800002053
:100F5000640000200000002010B50A48006840F43A
:100F60007F00084908600846006840F07F4008603C
:100F7000FFF75EFF002004490860FFF717F9002023
:100F800010BD000020ED00E05C0000202DE9FF4FC7
:100F900085B0804689461746DDE912ABB800FFF7F9
:100FA0003DFE064676B14C20FFF738FE04462CB1D4
:100FB0004C212046FFF754F9266304E03046FFF742
:100FC00011FF00E000247CB10020CDE900ABCDE9A9
:100FD00002403A4649464046089BFFF755FD2046E9
:100FE000FFF766FC012501E04FF0FF35284609B008
:100FF000BDE8F08F2DE9F041002757480068002830
:101000007ED156480068451C544805608DB9544847
:10101000D0F8008053480068514908605148C0F832
:10102000008051480068401C4F490860FFF7D2FD1E
:1010300000BF4E480068854276D300BF484800682C
:10104000006808B9012000E0002020B14FF0FF3017
:101050004649086067E042480068C068C46866683E
:10106000B54202D2414806605DE06069D4E90212EF
:101070008A60D4E902214A60211D42688A4201D176
:10108000E1684160002262610168491E0160A06A56
:1010900098B1A06AD4E907128A60D4E907214A60AE
:1010A00004F1180142688A4201D1216A416000229C
:1010B000A2620168491E016000BF94F82C10012053
:1010C00088402B490968084329490860E16A01EB17
:1010D0008101284A02EB81014868A0608268E260D1
:1010E000211D826851608160E16A01EB8101214A22
:1010F00002EB81026261E16A01EB81011D4A00E0BD
:1011000022E052F82110491CE26A02EB8202194BDC
:1011100043F822101849E06A0968C96A88428DD9E3
:1011200001278BE700E000BF13480068C06A00EBAE
:101130008000104951F82000012800D901270F48EC
:10114000006800B1012704E00D480068401C0C490C
:1011500008603846BDE8F0813C0000201400002003
:10116000040000200800002028000020300000209B
:10117000180000206400002000000020240000204F
:101180002000002070B500240026FFF709FE4B4820
:101190000068401E494908600846006800287DD163
:1011A00047480068002879D05BE04648C068C468BA
:1011B000A06AD4E907128A60D4E907214A6004F1E1
:1011C000180142688A4201D1216A41600022A2626C
:1011D0000168491E01606069D4E902128A60D4E99D
:1011E00002214A60211D42688A4201D1E1684160C2
:1011F000002262610168491E016094F82C100120F0
:1012000088403149096808432F490860E16A01EBC9
:1012100081012E4A02EB81014868A0608268E26089
:10122000211D826851608160E16A01EB8101274ADA
:1012300002EB81026261E16A01EB8101234A52F80B
:101240002110491CE26A02EB8202204B43F8221073
:101250001F49E06A0968C96A884202D301201D4912
:1012600008601848006808B9012000E00020002844
:101270009BD00CB1FFF7AEFC1748056865B100BF05
:10128000FFF7B8FE10B10120124908606D1E002D55
:10129000F6D10020104908600E4800E009E000681F
:1012A00038B1012630070D490860BFF34F8FBFF3F7
:1012B0006F8FFFF787FD304670BD00003C000020B7
:1012C00010000020F0000020180000206400002022
:1012D00000000020240000202000002004ED00E099
:1012E000001300080000002064000000280100082E
:1012F00064130008640000202C4B00004401000827
:1013000000000000000000000000000000000000DD
:1013100000000000000000000000000000000000CD
:1013200000000000000000000000000000000000BD
:1013300000000000000000000400000000000000A9
:10134000000000000000000000000000000000009D
:10135000000000000000000000000000AAAAAAAAE5
:041360000000000089
:04000005080000ED02
:00000001FF
