:020000040800F2
:100000007006002089010008910100089301000892
:100010009501000897010008990100080000000000
:100020000000000000000000000000009B0100082C
:100030009D010008000000009F010008A1010008C8
:10004000A3010008A3010008A3010008A301000800
:10005000A3010008A3010008A3010008A3010008F0
:10006000A3010008A3010008A3010008A3010008E0
:10007000A3010008A3010008A3010008A3010008D0
:10008000A3010008A3010008A3010008A3010008C0
:10009000A3010008A3010008A3010008A3010008B0
:1000A000A3010008A3010008A3010008A3010008A0
:1000B000A3010008A3010008A3010008A301000890
:1000C000A3010008A3010008A3010008A301000880
:1000D000A3010008A3010008A3010008A301000870
:1000E000A3010008A3010008A301000800F002F822
:1000F00000F03AF80AA090E8000C82448344AAF188
:100100000107DA4501D100F02FF8AFF2090EBAE885
:100110000F0013F0010F18BFFB1A43F0010318473B
:100120000022000020220000103A24BF78C878C1C5
:10013000FAD8520724BF30C830C144BF04680C60ED
:10014000704700000023002400250026103A28BF35
:1001500078C1FBD8520728BF30C148BF0B60704739
:100160001FB51FBD10B510BD00F044F81146FFF7D4
:10017000F7FF00F07FFB00F062F803B4FFF7F2FF37
:1001800003BC00F065F800000948804709480047B3
:10019000FEE7FEE7FEE7FEE7FEE7FEE7FEE7FEE737
:1001A000FEE7FEE704480549054A064B7047000094
:1001B00001070008ED000008700000207006002014
:1001C000700200207002002070477047704710B521
:1001D00000F008F8006810BD10B5044600F002F801
:1001E000046010BD004870471000002000487047B0
:1001F000100000207546FFF7F9FFAE46050069467E
:10020000534620F00700854618B020B5FFF7CAFF17
:10021000BDE820404FF000064FF000074FF0000807
:100220004FF0000B21F00701AC46ACE8C009ACE888
:10023000C009ACE8C009ACE8C0098D46704710B5EC
:100240000446AFF300802046BDE81040FFF795BF9D
:1002500001491820ABBEFEE726000200704721B11D
:10026000826842F00102826003E0826822F00102AB
:1002700082607047014600208A6802F004020AB1D9
:10028000012000E0002070470146C86C80B2704732
:100290000246002013680B400BB1012000E0002053
:1002A0007047014600208A6802F008020AB1012066
:1002B00000E000207047000030B502460020002317
:1002C00050680F4C20400D790C6844EA0524204307
:1002D000506090680B4C2040D1E902542C434D797A
:1002E00044EA450420439060D06A20F470000C7CFE
:1002F000641EE4B2234340EA0350D06230BD0000E4
:10030000FFFEF0FFFDF7F1FFF0B504460D460020BB
:100310000021092D11DDE068A5F10A0606EB46076C
:10032000072606FA07F18843A5F10A0606EB4606FA
:1003300003FA06F10843E0600CE0206905EB45078D
:10034000072606FA07F1884305EB450603FA06F18E
:1003500008432061072A0FDA606B561E06EB8607FA
:100360001F2606FA07F18843561E06EB860605FA95
:1003700006F10843606322E00D2A0FDA206BD61FD6
:1003800006EB86071F2606FA07F18843D61F06EB01
:10039000860605FA06F10843206310E0E06AA2F140
:1003A0000D0606EB86071F2606FA07F18843A2F121
:1003B0000D0606EB860605FA06F10843E062F0BD7D
:1003C000816841F008018160704721B1826842F480
:1003D000A002826003E0826822F4A002826070477B
:1003E000816841F00401816070472DE9F0410246C7
:1003F00000250026002000230024002791F803C0D8
:100400000CF00F0591F803C00CF0100CBCF1000FBC
:1004100003D091F802C04CEA050591F800C0BCF188
:10042000000F31D0146800202BE04FF0010C0CFAC3
:1004300000F3B1F800C00CEA03069E4220D183000D
:100440004FF00F0C0CFA03F7BC4305FA03FC4CEA1F
:10045000040491F803C0BCF1280F06D14FF0010C41
:100460000CFA00FCC2F814C00AE091F803C0BCF119
:10047000480F05D14FF0010C0CFA00FCC2F810C077
:10048000401C0828D1D31460B1F800C0BCF1FF0FA4
:1004900034DD546800202EE000F1080C4FF0010814
:1004A00008FA0CF3B1F800C00CEA03069E4221D111
:1004B00083004FF00F0C0CFA03F7BC4305FA03FC62
:1004C0004CEA040491F803C0BCF1280F05D100F1F7
:1004D000080C08FA0CF8C2F8148091F803C0BCF1BB
:1004E000480F07D100F1080C4FF0010808FA0CF88A
:1004F000C2F81080401C0828CED35460BDE8F081BB
:1005000070B5002401210D48FFF75FFF00BF0221F5
:100510000A48FFF7BDFE0028F9D00848FFF7B4FEEF
:100520000446204601F05CFD0646054901F06CFDDD
:100530000546044901F092FC70BD00000024014012
:100540003333534000F07F4500B587B001214FF4AD
:10055000017000F051F800208DF81B002020ADF84C
:10056000180003208DF81A0006A91B48FFF73DFF6D
:100570004FF4004000F034F8002004908DF809009A
:1005800001908DF808004FF46020039001208DF851
:10059000140001A91148FFF78FFE05230122194617
:1005A0000E48FFF7B1FE01210C48FFF758FE0B483B
:1005B000FFF706FF00BF0948FFF773FE0128FAD0D6
:1005C0000648FFF70DFF00BF0448FFF753FE002861
:1005D000FAD107B000BD000000080140002401402E
:1005E00001460020034A506820F440400843506010
:1005F000704700000010024029B1064A9269024388
:10060000044B9A6104E0034A92698243014B9A6168
:10061000704700000010024010B500F001F810BD56
:100620000CB50020019000903348006840F4803001
:100630003149086000BF3048006800F40030009085
:100640000198401C0190009818B90198B0F5A06F6E
:10065000F1D12948006800F4003010B10120009069
:1006600001E0002000900098012843D12348006851
:1006700040F01000214908600846006820F003009F
:1006800008600846006840F0020008601A484068A8
:10069000194948600846406848600846406840F488
:1006A000806048600846406820F47C104860084636
:1006B000406840F4E81048600846006840F08070E8
:1006C000086000BF0C48006800F000700028F9D0F6
:1006D0000948406820F00300074948600846406820
:1006E00040F00200486000BF0348406800F00C0082
:1006F0000828F9D10CBD0000001002400020024083
:1007000010B51348006840F0010011490860084620
:100710004068104908400E494860084600680E4984
:1007200008400B4908600846006820F480200860F3
:100730000846406820F4FE0048604FF41F008860BF
:10074000FFF76AFF4FF000600449086010BD000029
:10075000001002400000FFF8FFFFF6FE08ED00E089
:10076000490050EAC12018BF04204A0D18BF40F0CC
:10077000010040F2FF72B2EB515F08BF40F002008F
:10078000012808BF052070472DE9F0414F1E00EBFE
:10079000C7010446D1E9000115461E4637F006029E
:1007A0000DD02A46334601F01DF87F1E04EBC70327
:1007B000D3E9002300F0AEFD37F00602F1D1022F9D
:1007C00025D0042F13D0062F18BFBDE8F0812A468C
:1007D000334601F007F8D4E90A2300F09BFD2A46CE
:1007E000334600F0FFFFD4E9082300F093FD2A46CA
:1007F000334600F0F7FFD4E9062300F08BFD2A46CC
:10080000334600F0EFFFD4E9042300F083FD2A46CD
:10081000334600F0E7FFD4E9022300F07BFD2A46CF
:10082000334600F0DFFFD4E90023BDE8F04100F0DB
:1008300071BD0000002213461046014900F026BE9B
:100840000000F03F00F066BD00221346104611463E
:1008500000F01CBE40F2013200204FF0E04101F0F8
:10086000D1BC0000024A0020110701F0CBBC0000FF
:1008700001FDFFFFFFF768FE2BE0FFF741FE154982
:1008800008600846006801F0BDFA06464FF066327F
:10089000114B01F0DBF804460D460E48006801F0EC
:1008A000B1FA06460D4A0E4B00F09CFF80462246E8
:1008B0002B4600F0EBFD82460A4A0B4B00F018F87D
:1008C0000A4A03C2002000E0401C42F21071884234
:1008D000FADBD2E70000002066660A405A83F7552B
:1008E000B95054403471F0D5636EF83F08000020D1
:1008F0002DE9F04D1D460C4698B0174621F00041F9
:1009000023F00043002814BF4FF0010C4FF0000CFF
:100910000CEB440CFE4A0CEB02064FEA620C6645F7
:100920002BD33E0018BF012606EB45061644F94AB4
:10093000964222D3F84A53EA070C02D0944205D1DA
:1009400048B918B000201146BDE8F08D002808BF56
:100950004FF0000C01D04FF0010C0CEB440212F5EB
:10096000001F0AD8002F14BF4FF0010C4FF0000CED
:100970000CEB450212F5001F07D918B03A462B467A
:100980002146BDE8F04DFFF75DBF0022DFF88CA3E4
:10099000002CB8BF534526DADFF884C36345A8BFEF
:1009A000022220DADFF870C39C451CDCDFF874C338
:1009B0000CEB235CBCF1140F08DDCCF1340627FAF4
:1009C00006FC0CFA06F6BE420DD108E05FB9CCF188
:1009D000140623FA06FC0CFA06F69E4203D10CF02C
:1009E0000102C2F1020251EA000C19D1002D17DAFE
:1009F000002C18BF022A01D0012A07D00220FFF7DD
:100A0000EBFB18B0BDE8F04DFFF714BF0220FFF775
:100A1000E3FBFFF70FFF18B081F00041BDE8F08D58
:100A2000B7F1000C6CD1534525D104F1804212F589
:100A3000801201BF00280020B74918B008BFBDE8E8
:100A4000F08DB548884207DC002DA1BF60462946DD
:100A500018B0BDE8F08D07E0281E05DA80F00041EF
:100A600018B06046BDE8F08DAF497944D1E9000186
:100A700018B0BDE8F08DDFF8A0C2634525D1002D88
:100A80001FDA19B1514512D1D8B909E0002840F058
:100A9000EC82A24A214618B062F31E01BDE8F08D37
:100AA0000020214618B060F31E01BDE8F08D08DA81
:100AB00018B02346BDE8F04D02460020614600F024
:100AC000E5BC18B02146BDE8F08D514518DAB5F106
:100AD000804F0DD0A5F1005CBCF1FF5C10D1B4F1EA
:100AE000000C0DDB18B06146BDE8F04D00F0ECBB2A
:100AF000234618B00246BDE8F04D194600F072BE1C
:100B0000060024F0004C3BD1D9B1514533D1002C23
:100B100006DD002DA1BF0020514618B0BDE8F08DC4
:100B2000002C01DD002D1BDB002C13DA002D11DB66
:100B3000012A4FF0000014BF78497C4918B0BDE885
:100B4000F08D022A18BF002C0AD0012A08D1002CEF
:100B500006DA0AE0002CB8BF002D11DA012A04D011
:100B6000002018B00146BDE8F08D18B000204FF00D
:100B70000041BDE8F08DA1F14050B0F17F601AD086
:100B8000012000EBE47050EA020421D0624C521EB6
:100B90004FF0000B104304BF4FF0000B644C65484E
:100BA00083427CDD644A654893421FDD884217DB3F
:100BB000002D25DB37E0002C00DA4AB1022A0CBFF9
:100BC00001204FF0FF3018B0BDE8F04D00F0B6BD89
:100BD0000120FFF701FB18B0BDE8F04DFFF734BE70
:100BE0004D4A8A4202DC002D0ADC1CE0814202DA16
:100BF000002D18DA04E0484B994220DD002D12DD6B
:100C00000220FFF7E9FAFFF725FE05460E4600220F
:100C100053465846214600F0E5FD18B066F31E0124
:100C20002846BDE8F08D0220FFF7D6FAFFF71AFE3E
:100C30000A46214618B062F31E01BDE8F08D00227D
:100C40003046614600F0F4FF80460E466FF0010228
:100C500001F0D8FA4FF05532394B00F0F7FE42461A
:100C6000334600F0BFFD0022364B00F0EFFE824617
:100C70004246334604911046194600F0B3FD5246F1
:100C8000049B00F0AFFD8A4600904FF0C0422E4B0F
:100C90004046314600F0A6FD2C4A2B4B00E027E0F1
:100CA000CDE906015146009800F09CFD8246019175
:100CB000274A284B4046314600F094FD5246019B9E
:100CC00000F0B6FF82460B4602460591DDE90601BB
:100CD00000F020FBDDE9062300268846304600F0C0
:100CE000A7FF5246059B00F0B1FE024600F07EB918
:100CF0000020B1F5801F07DA35223046614601F049
:100D000081FA06466FF0340000EB215024E0000029
:100D1000FFFF1F00FFFF0F000000F03F0000F07F0B
:100D20000000404301FCFFFFAA1800000000F0FF94
:100D30000000F0BF0000E0410000F043FFFFEF3F84
:100D40005555D53F0000E03F4715F73FFE822B6524
:100D500044DF5DF80BAE543EA0F2FF300190C1F3CA
:100D6000130040F07F6141F040510291FE498842FA
:100D7000D8BF002004DDFD498142C8BF012001DD4C
:100D80000D9008E000200D900198401C0190029801
:100D9000A0F5801002900299F54878440B910D99C6
:100DA00000EBC100D0E900230F9330460A920B9963
:100DB00000F03EFFCDE90601DDE90A2130460F9B38
:100DC00000F0A8FA02460B460020EA4900F05EFB5C
:100DD000059102460B460090DDE9060100F002FD98
:100DE0001490E5488A464FF000087844029900685C
:100DF00012904FF0005040EA61010D980F9B01EBFB
:100E0000804000F5002109910A9A129800F010FF25
:100E100032460B9B00F01AFE4246534600F0E2FCBD
:100E20000646029140465146099B129A00F0DAFCB0
:100E3000DDE9062300F00AFE3246029B00F0F8FED0
:100E4000059B009A00F0CEFC0091149A0490534642
:100E50001046194600F0C6FC06460246C7480B4637
:100E6000029106217844FFF78FFCCDE90510029B23
:100E700032461046194600F0B5FCDDE9053200F0B7
:100E8000B1FC05910646534640461946149A00F0B7
:100E900041FA009B049A00F0A5FC3246059B00F045
:100EA00039FACDE90510424653461046194600F07E
:100EB00099FC0022B24B02910A9000F02BFADDE976
:100EC000053200F027FA0E464246AD4B404600F090
:100ED000AFFE029B0A9A00F0ABFEDDE9053200F09E
:100EE000B5FD424602910A9033461046514600F045
:100EF00079FCCDE906015346149A02990A9800F04C
:100F000071FC8A460290334642460099049800F0EC
:100F100069FC5346029A00F0FDF982460B460246F0
:100F20000591DDE9060100F0F5F9DDE90623002071
:100F30008846064600F07CFE5246059B00F086FD82
:100F4000824609914FF060428E4B3046414600F098
:100F500049FC049006918C4A8A4B5046099900F04E
:100F600041FC82460291894A894B3046414600F055
:100F700039FC5246029B00F0CDF9864B7B440D9A1A
:100F800003EBC203D3E9002300F0C4F90E900791EC
:100F9000019800F0D3FB0591DDE9061382460E9A15
:100FA000049800F0B7F97C4A7A440D9B02EBC30326
:100FB000D3E900230093029200F0ACF95246059B5E
:100FC00000F0A8F90026884652463046059B00F0FE
:100FD0002FFE009B029A00F02BFE069B049A00F065
:100FE00027FE079B0E9A00F031FD024600200B46BB
:100FF00002903846294600F0F5FB824601912B46C7
:1010000038461946029A00F013FE3246434600F075
:10101000E9FB5246019B00F07DF907468A463246BD
:1010200043462946029800F0DDFB05460E463A4647
:10103000534600F06FF9594A8846914221DBA8EBEC
:10104000020353EA000210D12A46334600F0F0FDB5
:10105000CDE90401524A534B3846514600F05AF943
:10106000DDE9042300F0BCFC21D20220FFF7B4F834
:10107000FFF7F0FB0A46214618B062F31E01BDE8F7
:10108000F08D494B28F000429A4210D3474A08EBB2
:10109000020353EA00027FF4C6AD2A46334600F04D
:1010A000C7FD3A46534600F09BFC7FF6BCAD0022DC
:1010B000019228F000403E493E4A01EB2051824215
:1010C00023DA481C4FF4801121FA00F040443A4AD8
:1010D000C0F30A517A44394BA1F2FF31CB4020EAE8
:1010E0000303C0F3130040F48010C1F11401C840A1
:1010F00012680190B8F1000FBCBF40420190284631
:10110000314600F095FD05460E462A4633463846E0
:10111000514600F0FFF84FF000084246284B404689
:10112000059100F05FFBCDE90601264A264B4046BB
:10113000059900F057FB009102902A46334640463D
:10114000059900F075FD3A46534600F07FFC1F4AB2
:101150001F4B00F047FB009B029A00F0DBF80746AC
:10116000884602460B4635E08E9803007AB60B009F
:10117000F21400000000F03F2A150000581400008F
:101180000000084009C7EE3FFD033ADCF5015B149F
:10119000E02F3EBE30130000F4120000000090402B
:1011A000FE822B654715973C00CC904000346F3F82
:1011B00001FCFFFF0000E03F40120000FFFF0F00B6
:1011C000432EE63F396CA80C615C20BEEF39FAFE75
:1011D000422EE63FDDE9060100F09CF8DDE906233A
:1011E00005460E4600F024FD3A46434600F02EFC2C
:1011F0000F462A46334600901046194600F0F2FA90
:10120000824602462E4888460B4605217844FFF761
:10121000BBFA5246434600F0E5FA2A46334600F050
:1012200015FC80468A463B4628463146009A00F027
:10123000D9FA3B46009A00F06DF806910090002222
:101240004FF080434046514600F0F2FC0F460C90B0
:10125000424653462846314600F0C4FA3B460C9AB3
:1012600000F014F9069B009A00F0E2FC2A4633468F
:1012700000F0DEFC0022134B00F0E8FB054601986D
:101280000E4601EB00510815002810DC28463146B7
:10129000019A00F0B7FFFFF763FA042808BFFFF7D1
:1012A000E1FA28463146019A00F0ACFF05460B46AC
:1012B00018B02A4658462146BDE8F04D00F092BAD3
:1012C000E01000000000F03F2DE9F04106460F4617
:1012D00000F0C8FB041E0D4618BF0120284320F073
:1012E0000040C0F17F6000F1E040C00F0ED0301C24
:1012F00018BF0120384320F00040C0F17F6000F1AA
:10130000E040C00F04BF0120FEF766FF20462946DB
:10131000BDE8F08110B591EA030F48BF83F00043A8
:1013200000F18E84841A71EB030C05D2121943EB81
:101330000C03001B61EB0C01DFF824E14FEA1154B0
:10134000A4EB135C1EEA430F18BF9EEA445F73D000
:1013500023EA0E03DCF1200E21EA045143F480134A
:1013600032D322FA0CFE10EB0E0023FA0CFE41EBF6
:101370000E01CCF1200E03FA0EFE10EB0E0051F11F
:101380000001B1F5801FCCF1200E32D201EB0451E7
:1013900012FA0EF2BDE8104058BF7047401C38BF2B
:1013A0005FEA420218BF7047002814BF20F0010016
:1013B00041F100014FEA410313F5001F38BF7047A8
:1013C000A1F1C04100F006BB012A43EB0302ACF1DE
:1013D000200CDCF11F0E32BF4FF0000E23FA0CF38D
:1013E00010EB030041EB0451B4EB115FD0D0A1EB43
:1013F000045101F5801149085FEA300001EB045106
:101400000ED350F1000038BF12FA0EFE08D1BDE82D
:101410001040C9E7401C38BF5FEA4202CAD1C3E7A7
:10142000BDE810404FEA410313F5001F38BF704775
:10143000A1F1C04100F0CEBA9EEA445F08D011EAA3
:101440005E0FBDE8104004BF01F00041002070476E
:10145000BDE8104070B500F06FFA00BF64FBBE3EFF
:101460000000E0FF02494FF0000000F099BE00BF0D
:101470000000F87F491058BFC1F140415B1058BFD0
:10148000C3F140438B42EFF3008070472DE9C04128
:1014900030B4DFF8A0C23CEA111418BF3CEA1314C0
:1014A00000F0EC8081EA03051CEA111444EAD574CB
:1014B00018BF1CEA131500F0C780A4EB05044FF019
:1014C000004545EAC12145EAC32341EA505143EAB8
:1014D000525304F17F74994204F500344FEAC0205E
:1014E0004FEAC22208BF904200F09C804FEA136589
:1014F0000FF24016765D4FEA134506FB05F7C7F17C
:10150000807706FB07F74FEAD737A7FB03687642D9
:10151000C8F58038A7FB06CE38BFA8F1010807FB45
:1015200008E64FF0000EA6FB028CE6FB03CEDCF1D2
:10153000000CCEF1004E38BFAEF1010EA6FB0C58E8
:101540004FF000074FF00005E6FB0E87A1FB08C631
:10155000A0FB07CE16EB0E0645F10005E1FB076583
:1015600015F1E04E7EBFA4F580345FEA46066D417A
:1015700016F1800745F100054FEA17274FEA066686
:1015800047EA0567A6F1DE46B6F1805F4FEA15250A
:101590001FD9384624F0010C05EBC471BCF1FE6F75
:1015A00001EB0C1102D8F0BCBDE8008124425CBF05
:1015B00001F5801E9EEAC47F02D4F0BCBDE8008124
:1015C000244238D4F0BCA1F1C041BDE8004100F094
:1015D00001BA4FEAD22242EA43524FEAD323A7FB91
:1015E00002864FEAD02040EA415007FB03661EEA1C
:1015F0000E0F4FEAD12105FB026658BFA6EB00563D
:10160000B6EB00564FEA520E4EEAC37E18EB0E0EB2
:1016100056EB530EBDD518EB02085E417F1C55F109
:101620000005B6E74FF480154FF000074FF00006B5
:101630004FF00008ADE7F0BC4FF0000001F1C041F1
:1016400001F00041BDE8008111EA0C1F0CEA1315FE
:1016500000D00CE013EA0C1F00F025804FF00000D2
:10166000F0BC81EA030101F00041BDE80081F0BC5B
:10167000BDE8004181EA030100F0ACB9F0BCBDE86F
:10168000004170B500F058F9097EFC3E00F007B843
:1016900081EA03014FF0000001F00041704781EA48
:1016A000030100F097B9F0BCBDE800414FF0000025
:1016B00021497047FFFDFBF9F7F5F4F2F0EEEDEB91
:1016C000E9E8E6E4E3E1E0DEDDDBDAD8D7D5D4D340
:1016D000D1D0CFCDCCCBCAC8C7C6C5C4C2C1C0BF8C
:1016E000BEBDBCBBBAB9B8B7B6B5B4B3B2B1B0AF92
:1016F000AEADACABAAA9A8A8A7A6A5A4A3A3A2A176
:10170000A09F9F9E9D9C9C9B9A9999989797969530
:1017100095949393929191908F8F8E8E8D8C8C8BCC
:101720008B8A898988888787868585848483838254
:10173000828181800000FF070000F87F10F00042E6
:1017400048BF4042B0FA80F310FA03F10AD0C3F167
:101750001D0303F580634FEA415002EB035202EB95
:10176000D12170474FF000007047000051EA030C90
:1017700017D41CF5801F58BFBCF5801F00F10680F0
:10178000994218BF704708BF9042704707D711F5BC
:10179000801F58BF13F5801F19D4994270478942A2
:1017A00070471CF5801F08D5BCF5801FF7D58B420C
:1017B00018BF704708BF824270474FF4001C1CEBF3
:1017C000410F38BF1CEB430F01D28B42704770B5FD
:1017D00000F0B2F8922449004FF000514FF08053CE
:1017E000FFF748BEDFF848C170B51CEA111E1EBFE6
:1017F0001CEA13159EEA0C0F95EA0C0F00F06F809F
:1018000081EA030423EA4C134EEAD47E21EA4C1108
:1018100041F4801143F48013AE44A1FB024CA0FBC1
:101820000365AEF17F7E361955EB0C05A1FB034C29
:101830004CF10003A0FB021C16EB0C06654153F1B2
:101840000003094218BF46F0010613F4007F0BD1D4
:101850004FEA03314FEA0530340341EA155140EABB
:1018600016506FF003020AE04FEAC3214FEAC52089
:10187000F40241EA555140EA56506FF0020202EB81
:101880002E4201EB025585EACE710AD05FEA440C84
:1018900018BF24F0004450F1000041F1000120EA9B
:1018A000D47040F2FE7C624500D270BDA84214BFE5
:1018B0004FF080444FF04044002E08BF0024BEF19A
:1018C000806FA8BFA1F1C041BDE8704080F2828066
:1018D0004FF0000001F1C04101F0004170479EEA65
:1018E0000C0F0CEA131518BF95EA0C0F06D04FF039
:1018F000000081EA030E0EF0004170BD00F01CF8FC
:101900008900013E00F007B800F009B84FEA430C27
:101910005FEA5C5C08D081EA030100F05BB84FEA43
:10192000410C5FEA5C5CF6D14FF000000149704762
:101930000000FF070000F87F0EF1020E2EF0030EEC
:101940005EF8046B364205D4012A43EB030515F516
:10195000001F12D8012841EB010C1CF5001F0CD808
:101960000ED14FEAD17C15F5001F0CEB4C0C0CF19D
:10197000020C08BF4CEBD37C04E04FF0080C01E0F4
:101980004FEAD37C0CEB4C0526FA05F606F0070669
:10199000B6F1040C06D20EEB860CBDE870404CF09C
:1019A000010C6047DFE80CF0090B02024FF0004128
:1019B0004FF00000A1F5002170BD19461046012826
:1019C00051EB010418BFD4F5001484BF002001F0CE
:1019D000004170BD0808A0F500114FEA31017047C1
:1019E00053EA010C17D41CF5801F58BFBCF5801FAB
:1019F00000F106808B4218BF704708BF82427047D3
:101A000007D713F5801F58BF11F5801F19D48B42DB
:101A100070479B4270471CF5801F08D5BCF5801F9E
:101A2000F7D5994218BF704708BF904270474FF4EE
:101A3000001C1CEB430F38BF1CEB410F01D2994235
:101A400070470FB40CBC03BCFFF7C1BE91EA030F93
:101A500010B581F000413FF565AC83F0004300F024
:101A6000EFB800002DE9F04101F5801CBCF5001F26
:101A7000C0F2C3804FEA115C21EA0C510CF1FD0C5D
:101A800041F480115FEA5C0C0CF5C07C01D340008E
:101A900049413DA4890241EA905187028E0E0A0C09
:101AA000A45D04FB04F602FB06F6C6F14046A4FB67
:101AB0000662F60D46EA422606FB06F4A4FB012365
:101AC0005242C3F1404338BF5B1EA6FB02420024D2
:101AD000E6FB0324D20B42EA4446A6FB0623A1FB05
:101AE00002E2A3FB07E4A4184FF0000252F1000247
:101AF000E3FB01426442C2F1404E38BFAEF1010E39
:101B0000A6FB04234FF00002E6FB0E32A2FB0346C5
:101B10004FF00004B61954F10004E2FB0264A1FB8B
:101B200006E6A4FB07E816EB08064FF0000858F19C
:101B30000008E4FB01687642C8F1405838BFA8F1BC
:101B40000108A2FB06E4A3FB08E52D194FF00004F1
:101B500054F10004E2FB0854A1FB05E6A7FB04E8EE
:101B600018EB06084FF0000656F10006E1FB04866C
:101B700018F1200556F10006A809A8F11B08B109C3
:101B800008F03F08B8F10A0F40EA86601CD901EB63
:101B90000C51BDE8F08100BFFCF5EEE8E2DDD8D3E2
:101BA000CFCBC7C3C0BDB9B6B4B1AEACA9A7A5A3CE
:101BB000A19F9D9B9A9896959392908F8D8C8B89DF
:101BC0008887868584838281A0FB006800FB01F200
:101BD00008EB4208B8EB872807D5341858EB010406
:101BE000D5D5401C51F10001D1E7341A78EB01043E
:101BF000CDD4401E71F10001C9E75FEA4C0C5FEAE9
:101C00009C5C0DD105D34FF0000001F00041BDE810
:101C1000F081BDE8F04170B5FFF78EFE6DDBFFBED1
:101C2000BDE8F0414FF00000004970470000F87F28
:101C300010B591EA030F48BF83F000433FF572AB44
:101C4000841A71EB030C07D212198CF0004C43EB91
:101C50000C03001B61EB0C01DFF8A4E14FEA115407
:101C6000A4EB135C1EEA430F18BF9EEA445F00F02A
:101C7000B08023EA6E03524221EA0451C3EB6E03A3
:101C800038BF5B1EDCF1200E25D322FA0CFE10EBD0
:101C90000E0043FA0CFE41EB0E01CCF1200E03FACC
:101CA0000EFE10EB0E0051F10001CCF1200E29D4F4
:101CB00012FA0EF201EB0451BDE8104058BF704714
:101CC000401C1CBFB2F1004F704700280CBF491CDC
:101CD00020F00100704712EB020E43EB030218BF25
:101CE0004FF0010E4EEA4202ACF1200CDCF11E0E68
:101CF00054D943FA0CFE10EB0E0051F1FF31CCF138
:101D00001E0ED5D50EF1010E12FA0EFE404141EB2A
:101D1000010101EB445C5FEA5C5C10D910EBDE7002
:101D200001EB045138BFBEF1004FBDE8104018BFB1
:101D3000704700280CBF491C20F00100704730D2CA
:101D40004FEAD42C11F5001124F400641BD0B1FA31
:101D500081F20B3AA41AA41ED2F12003914030FA6A
:101D600003F31943904001EBCC71002C01EB0451BB
:101D7000BDE81040A8BF704701F1C0414FF000001E
:101D800001F000417047B0FA80F310FA03F100D17E
:101D900010BDE41A173C4805C90AE4E701EB0451F9
:101DA00010BD491001EB0451BDE810404FEA30006E
:101DB00002E04FF0000170474A0008BF0042F8D02F
:101DC000B2F5001F28BF704701F000414FF000003E
:101DD00070479EEA445F07D011EA5E0FBDE81040ED
:101DE00004BF002100207047BDE8104070B5FFF728
:101DF000A3FD00BF40DFF63E83F000411046704770
:101E00000000E0FF43004FEAD30C4FEA3C0C434094
:101E10001FBF40070CF1605113F0FE4F70471CF0DC
:101E2000006F03D100200CF0004170470CF000431C
:101E300043EA507010B540EACC0000F066F900BFEC
:101E4000000000924FEA0001FFF7C4BD4FF00041CF
:101E50004FF00000A1F50021704700004FF47F0C07
:101E60001CEAD0121EBF1CEAD11392EA0C0F93EAAF
:101E70000C0F00F0858090EA010F48BF42F4807299
:101E800040F4000C41F400002CF07F4120F07F4032
:101E900000B58142A2EB03020FF2081CACEB504EDE
:101EA000C0F100009EF800E04FEA4E0E00FB0EFC71
:101EB00038BF49004FEA2C1C02F5FA020CFB0EF366
:101EC0004FEACE1E4FEA112C4FEAC1210EEB635EA2
:101ED00042EB22420EFB0CFC4FEA1C5300FB0311A9
:101EE0004FEA112C4FEA01310EFB0CFC4FEADC4C9F
:101EF00000FB0C11C14228BF09184CEB03335DF8FD
:101F000004EB10EB410143EBC250B2F57C0F38BF3C
:101F1000704729D512F0F00F1CBF00F1C04000F04F
:101F200000407047008182838485868788898B8CF6
:101F30008D8E8F919293959697999A9C9D9FA0A232
:101F4000A3A5A7A8AAACAEB0B2B3B5B7B9BCBEC082
:101F5000C2C5C7C9CCCED1D4D7D9DCDFE2E6E9EC23
:101F6000F0F3F7FAFE0000004FEA400C0CF1807C21
:101F7000BCF17E4F28BF7047B0F1C04000F00BB9F4
:101F800090EA010F0CEAD11348BF42F48072624517
:101F900038BF634507D213F47F0F16D080EA0100E3
:101FA00000F00040704710B500F0AFF8097EFC3E2D
:101FB00000F005B880EA010000F00040704780EAB8
:101FC000010000F0004000F0E6B812F47F0F04BFFB
:101FD0000248704780EA010000F0DDB80000C07FD1
:101FE000B0FA80F310FA03F2C3F19D030AD0D905C9
:101FF00001EB1220530638BF704700F1010008BF03
:1020000020F00100704700004FF47F0C1CEAD01252
:102010001EBF1CEAD11392EA0C0F93EA0C0F00F0DA
:10202000478090EA010F48BF42F480724FF0004CA5
:102030004CEA00204CEA012102EB0302A0FB011351
:10204000A2F50002002918BF43F001035B0028BF7E
:102050004FEA330342EB22425FEA132C4CEBC250AF
:102060002EBFBCEB436FB2F57C0F70474FEA036C99
:10207000BCF1004F08BF20F00100B2F57C0F38BF63
:1020800070470BD582F0FF0212F5803FC8BF704742
:1020900000F1C040D8BF00F00040704700F5000CD0
:1020A0005FEA4C0C48BF7047B0F1C04000F073B815
:1020B00090EA010F0CEAD11348BF42F480726245E6
:1020C00038BF634504D280EA010000F00040704749
:1020D00010B500F01AF800BF8900013E00F007B803
:1020E00000F009B85FEA410C5FEA1C6C08D080EA96
:1020F000010000F050B85FEA400C5FEA1C6CF6D1BA
:102100004FF00040A0F5800070470EF1020E2EF057
:10211000030E5EF8044B244204D44FEA4102B2F1AC
:102120007F4F11D84FEA4003B3F17F4F0CD80ED147
:102130004FEAD07CB2F17F4F0CEB4C0C0CF1020C4F
:1021400008BF4CEBD17C04E04FF0080C01E04FEAF3
:10215000D17C0CEB4C0324FA03F404F00704B4F133
:10216000040C06D20EEB840CBDE810404CF0010CC0
:102170006047DFE80CF0070802024FF00040A0F5CE
:10218000800010BD0846420018BFD2F1807288BF9F
:1021900000F0004010BDFF2141EAD050C00570475B
:1021A0000CF00F03092B08BF082000F059800A2B00
:1021B0000BD0082B18BF704708BF1CF0400F0AD087
:1021C0004FF000004FF0000170471CF0400F18BFA7
:1021D0004FF0004070471CF0100F08D020F0704303
:1021E00000F07F4242EAD3014FEA4370704700F0AB
:1021F000604021F07F4242EA000201F07F4040EA65
:10220000727070474FF0FF0C4CF4E06C1CEA1153F5
:102210001CBF9CEA030C9445C2BFDA4201EB025199
:102220007047002B0DD0BCF1000F0FD0002A01F039
:102230000041A4BF41F0E04141F07F614FF0000058
:10224000704701F000414FF00000704750EA013341
:102250004FF09B0C18BF4CF0806C7FF403A97047C3
:102260001CF4801F11D01CF4E02F03D06FEACC3196
:10227000490070474FF04050EFF3008222F0704267
:1022800042EA000282F3008870474FF00000704776
:10229000000000000000F03F000000000000F83FD8
:1022A00000000000000000000000004003B8E23F12
:1022B000000000000000000006D0CF43EBFD4C3EC4
:1022C000033333333333E33FFFAB6FDBB66DDB3FB9
:1022D0004D268F515555D53F01411DA96074D13F01
:1022E00065DBC9934A86CD3FEF4E454A287ECA3FFB
:1022F0003E5555555555C53F93BDBE166CC166BF7D
:102300002CDE25AF6A56113FF16BD2C541BDBBBE75
:10231000D0A4BE726937663E0000000000000000D5
:1023200040230008000000201000000028010008E1
:10233000502300081000002060060000440100083F
:10234000000000000000000000000000000000008D
:04000005080000ED02
:00000001FF
