:020000040800F2
:10000000D8140020C9010008C50500087B040008B9
:10001000C1050008830200083D0A00080000000036
:10002000000000000000000000000000C5080008FB
:10003000870200080000000075070008D9090008C1
:10004000E3010008E3010008E3010008E301000800
:10005000E301000845080008E3010008E301000887
:10006000E3010008E3010008E3010008E3010008E0
:10007000E3010008E3010008E3010008E3010008D0
:10008000E3010008E3010008E3010008E3010008C0
:10009000E3010008E3010008E3010008E3010008B0
:1000A000E3010008E3010008E3010008E3010008A0
:1000B000E3010008E3010008E3010008E301000890
:1000C000E3010008E3010008E3010008E301000880
:1000D000E3010008E3010008E3010008E301000870
:1000E000E3010008E3010008E301000800F002F862
:1000F00000F05AF80AA090E8000C82448344AAF168
:100100000107DA4501D100F04FF8AFF2090EBAE865
:100110000F0013F0010F18BFFB1A43F0010318473B
:10012000240A0000440A00000A444FF0000C10F8B2
:10013000013B13F0070408BF10F8014B1D1108BF65
:1001400010F8015B641E05D010F8016B641E01F805
:10015000016BF9D113F0080F1EBF10F8014BAD1C55
:100160000C1B09D16D1E58BF01F801CBFAD505E073
:1001700014F8016B01F8016B6D1EF9D59142D6D3CD
:10018000704700000023002400250026103A28BFF5
:1001900078C1FBD8520728BF30C148BF0B607047F9
:1001A0001FB51FBD10B510BD00F031F81146FFF7A7
:1001B000F7FF00F071FC00F04FF803B4FFF7F2FF17
:1001C00003BC00F057F80000094880470948004781
:1001D000FEE7FEE7FEE7FEE7FEE7FEE7FEE7FEE7F7
:1001E000FEE7FEE704480549054A064B7047000054
:1001F000DD090008ED000008D80E0020D81400200A
:10020000D8100020D81000207047704770477546FE
:1002100000F02CF8AE4605006946534620F0070072
:10022000854618B020B5FFF7DDFFBDE820404FF050
:1002300000064FF000074FF000084FF0000B21F0D0
:100240000701AC46ACE8C009ACE8C009ACE8C0099D
:10025000ACE8C0098D46704710B50446AFF3008086
:100260002046BDE81040FFF7A8BF000000487047D7
:10027000780E002001491820ABBEFEE726000200E0
:10028000704700BFFEE7704710B56FF0040000F044
:100290008FFB08480068C0080749B0FBF1F0074928
:1002A0000860084600684FF47A71484304490860C2
:1002B00010BD0000640E002040420F00000000202E
:1002C00004000020B0F5E96F00DD7047114A1268A4
:1002D00042434FF0E0235A6100229A611A461269A4
:1002E00042F001021A6100BF4FF0E022116901F0F3
:1002F00001021AB101F48032002AF5D04FF0E02259
:10030000126922F001024FF0E0231A6100229A6183
:1003100000BFDAE7040000200146114A12684A4390
:100320004FF0E0235A6100229A611A46126942F0A6
:1003300001021A6100BF4FF0E022106900F00102D3
:100340001AB100F48032002AF5D04FF0E022126991
:1003500022F001024FF0E0231A6100229A617047F7
:10036000000000202DE9F041024600250026002073
:1003700000230024002791F803C00CF00F0591F82A
:1003800003C00CF0100CBCF1000F03D091F802C0B8
:100390004CEA050591F800C0BCF1000F31D014689B
:1003A00000202BE04FF0010C0CFA00F3B1F800C074
:1003B0000CEA03069E4220D183004FF00F0C0CFA8A
:1003C00003F7BC4305FA03FC4CEA040491F803C0AC
:1003D000BCF1280F06D14FF0010C0CFA00FCC2F85A
:1003E00014C00AE091F803C0BCF1480F05D14FF0EA
:1003F000010C0CFA00FCC2F810C0401C0828D1D334
:100400001460B1F800C0BCF1FF0F34DD5468002067
:100410002EE000F1080C4FF0010808FA0CF3B1F8D7
:1004200000C00CEA03069E4221D183004FF00F0C5E
:100430000CFA03F7BC4305FA03FC4CEA040491F8F8
:1004400003C0BCF1280F05D100F1080C08FA0CF824
:10045000C2F8148091F803C0BCF1480F07D100F135
:10046000080C4FF0010808FA0CF8C2F81080401C84
:100470000828CED35460BDE8F08100BFFEE700003D
:1004800010B500F03BFB00200C49086000F01AF8A2
:1004900001200B49C1F8B8010220FFF73DFF0748D2
:1004A0007C38006808B1012400E000240220FFF736
:1004B00033FF002001490860204610BDB881214269
:1004C0000080214210B50520FFF726FF10BD000077
:1004D00008B50121082000F04FF94FF44040ADF875
:1004E000000014208DF8030001208DF802006946F9
:1004F0000248FFF737FFFFF7C7FE08BD000C0140B9
:1005000070B5044600F00CFB00251BE000201149EB
:100510000860FFF7D7FF04F0800020B101200D49EB
:10052000091D086003E000200A49091D0860FFF763
:10053000C9FF012007490860FFF7C4FF6006040EE9
:10054000681CC5B2082DE1DB002002490860FFF7F6
:10055000B9FF70BDB881214210B500F0E1FA012069
:10056000094908600949C1F8BC01FFF7ABFF002049
:100570000549091D0860FFF7A5FF00200349C1F8E0
:10058000B801FFF79FFF10BDB881214200802142D2
:1005900010B500F0C5FA012007490860002007499E
:1005A000C1F8BC01FFF78EFF01200349091D086057
:1005B000FFF788FF10BD0000B88121420080214272
:1005C00000BFFEE710B5802000F00AF970B14FF4CB
:1005D000803000F011F90121082000F051F90121CB
:1005E000102000F04DF9802000F0D6F810BD70B555
:1005F000002414E044F0B00000F022FA002000F0E3
:100600001FFA102000F01CFA002504E0002000F082
:100610002DFA681CC5B2802DF8DB601CC4B2082C12
:10062000E8DB70BD70B50646002422E044F0B0005F
:1006300000F006FA002000F003FA102000F000FAA3
:10064000002512E0012E06D10B4901EBC411485DD3
:1006500000F00CFA07E0022E05D1084901EBC411A5
:10066000485D00F003FA681CC5B2802DEADB601C0F
:10067000C4B2082CDADB70BD62060020620A0020DA
:1006800010B5FFF725FFC820FFF71CFEA82000F0DB
:10069000D7F93F2000F0D4F9DA2000F0D1F9122088
:1006A00000F0CEF9D32000F0CBF9002000F0C8F91B
:1006B000402000F0C5F9A12000F0C2F9812000F02F
:1006C000BFF90F2000F0BCF9A42000F0B9F9A62072
:1006D00000F0B6F9D52000F0B3F9F02000F0B0F941
:1006E0008D2000F0ADF9142000F0AAF9AE2000F042
:1006F000A7F9202000F0A4F9022000F0A1F9C820F9
:1007000000F09EF9B02000F09BF9002000F098F96D
:10071000102000F095F9402000F092F9D92000F067
:100720008FF9222000F08CF9DB2000F089F92020DD
:1007300000F086F9AF2000F083F900F005F8FFF72C
:1007400056FF00F00CF810BD10B58D2000F078F9C0
:10075000102000F075F9AE2000F072F910BD10B550
:100760008D2000F06DF9142000F06AF9AF2000F040
:1007700067F910BD7047000029B1064A926902432B
:10078000044B9A6104E0034A92698243014B9A61E7
:100790007047000000100240014988727047000055
:1007A0000010024010B501460022002300204A112B
:1007B000012A02D1094C236806E0022A02D1074C23
:1007C000236A01E0054C636A01F01F020124944092
:1007D0001C400CB1012000E0002010BD00100240C0
:1007E00001460020034A92680A400AB1012000E055
:1007F00000207047001002401149096821F480313F
:100800000F4A11601146096821F480211160B0F58A
:10081000803F03D0B0F5802F0ED106E0084909686B
:1008200041F48031064A116007E00549096841F446
:10083000A021034A116000E000BF00BF7047000024
:100840000010024010B50820FFF7CAFF48B1082089
:10085000FFF7A2FF3120FFF7A5FF10B1012000F044
:100860001FF81020FFF7BCFF48B11020FFF794FFDE
:100870003920FFF797FF10B1022000F017F810BDE4
:1008800029B1064A527A0243044B5A7204E0034AE1
:10089000527A8243014B5A727047000000100240A6
:1008A00001490866704700000000424201460020EE
:1008B000034A506820F0030008435060704700006E
:1008C00000100240704710B500F002F810BD0000A3
:1008D0000CB50020019000903348006840F480304F
:1008E0003149086000BF3048006800F400300090D3
:1008F0000198401C0190009818B90198B0F5A06FBC
:10090000F1D12948006800F4003010B101200090B6
:1009100001E0002000900098012843D1234800689E
:1009200040F01000214908600846006820F00300EC
:1009300008600846006840F0020008601A484068F5
:10094000194948600846406848600846406840F4D5
:10095000806048600846406820F47C104860084683
:10096000406840F4E81048600846006840F0807035
:10097000086000BF0C48006800F000700028F9D043
:100980000948406820F0030007494860084640686D
:1009900040F00200486000BF0348406800F00C00CF
:1009A0000828F9D10CBD00000010024000200240D0
:1009B000042808D14FF0E021096941F004014FF00B
:1009C000E022116107E04FF0E021096921F0040104
:1009D0004FF0E022116170477047000010B51348D6
:1009E000006840F00100114908600846406810495D
:1009F00008400E494860084600680E4908400B4907
:100A000008600846006820F48020086008464068B6
:100A100020F4FE0048604FF41F008860FFF753FF8A
:100A20004FF000600449086010BD00000010024053
:100A30000000FFF8FFFFF6FE08ED00E000BFFEE754
:100A400010B50446FFF788FD7820FFF759FDFFF742
:100A500017FD0020FFF754FDFFF712FD2046FFF7BA
:100A60004FFDFFF70DFDFFF793FD10BD10B50446D8
:100A7000FFF772FD7820FFF743FDFFF701FD4020EF
:100A8000FFF73EFDFFF7FCFC2046FFF739FDFFF7BF
:100A9000F7FCFFF77DFD10BDFFF7F2FD2DE0012013
:100AA000FFF7C0FD4FF47A70FFF70CFC4FF47A703B
:100AB000FFF708FC4FF47A70FFF704FC4FF47A70EC
:100AC000FFF700FC4FF47A70FFF7FCFB0220FFF702
:100AD000A9FD4FF47A70FFF7F5FB4FF47A70FFF73A
:100AE000F1FB4FF47A70FFF7EDFB4FF47A70FFF7EC
:100AF000E9FB4FF47A70FFF7E5FBD0E708B54FF458
:100B00000040ADF8000048208DF8030001208DF86A
:100B1000020069460148FFF725FC08BD000C0140B2
:100B200008B54FF40040ADF8000014208DF8030024
:100B300001208DF8020069460148FFF713FC08BD4B
:100B4000000C0140640B000800000020780E00003B
:100B50002801000810120008780E0020600600002E
:100B60008401000891100F8060F8074020180F08DA
:100B7000C808082818220112FF17100C0340807FB4
:100B8000140106181009C4E31010F01F10F010092A
:100B9000808282E2928A8680274022150816612987
:100BA000224116BAC3FC04FC14FE42BE27F212F224
:100BB00002FE02140F040F1CFF100F083A4F2417F7
:100BC000B0A11060028C1E445454547F041344405E
:100BD0002C04047E692E15151555952223C7E5486A
:100BE0000BFE021222C202C23202FE97121F1A200C
:100BF00088130C30150F3040F80313B7E772F85222
:100C0000331C100C0203A11C40C07803211C043FBC
:100C100004032127708888FC083017182020FF2142
:100C20001E37F008F08060181D310C031E101911DA
:100C300033887090091E21232C192721102A901621
:100C4000513CE018046025071820403D020418E0DC
:100C5000682C20180707174080F08040404F0202A0
:100C6000010F01028839201B0101111A01F0F9500E
:100C700061191CA91F111A30A4711BC038B83A6041
:100C80005F194D1D10080810522F0F102020100F53
:100C9000F15310F81E20203F2020E01A08011AF01E
:100CA000401D28242221441A300F29D23718202130
:100CB00021221C2C804030311008060524243F24BA
:100CC0002427F888888808082F19202020110E6012
:100CD000348888901B0F11111A1F38193F43681868
:100CE0003A3E9E1A702E29504B1C22501AF0602951
:100CF000902E01122222119011CBC0C0C272801915
:100D000025390F1C402010701E0102040810B03A53
:100D10004001213A02012119152A403219251B04EC
:100D200002724B70487019502A375D1D30C828E890
:100D3000702808071827282F2817122A3859280A38
:100D4000203C23020227382008D0192F4B203FD007
:100D50001BC030A01B083830191019784B08F8B0A8
:100D600039201B100F103E8888E8081010AC232093
:100D70001810113A0370393F39402C221E024019D5
:100D8000A41809F808203F21010121252A08522929
:100D90008129424149112EC08080807F0E2FF88822
:100DA000C0281808501C0126382F2940292F2980D7
:100DB0001B20301012F81AF8142E203F013E014F6C
:100DC0004CF830C0601A2074123F4BE010B06B0F2B
:100DD00010B029D01AF0301980220189203E28282D
:100DE00030504FC04C888870C0140C30204B708835
:100DF000C11738202121221C3A189F4A188239A095
:100E000049D0112A1F90121F240878881BC8381552
:100E10001C07380E601A089F1129241E033E013E4C
:100E2000031048131868808068180820302C0303CA
:100E30002C30200838C82F5950298F29102F2038DE
:100E400026212020681145FE020202257F404040F5
:100E5000740438C02B01060B191D42FE191D527F68
:100E60000512040202045A8001110B10120E1A41DD
:100E70001D19242412821B10F011413E3F11202025
:100E8000112C49211A0E104B20110F2390F029F03C
:100E90002A10B3395619101A24012A170F1CE09092
:100EA00090171A20D029D1497A214F6B94949493AA
:100EB0006060190F4C203F21F35480989879305985
:100EC000121AC02719D1193039311F203F240629A1
:100ED0003021AC1010F83069D7294B2903190BC900
:100EE0006079A019B02B201FDD390F8C80FF91E0B5
:100EF00011191229E03B91FF2D3950194112208A16
:100F000001C02A33E03A19E0394139525A104D19DB
:100F10000529606C103F2040114E030C300C035D1E
:100F200029033809010E300C073806011D39A14E7E
:100F3000310E2E31202C29051D818678181F59D19C
:100F400021072621302C2221305CC0C0C094D11D45
:100F5000206060E01AF1000948080C1C3878F0E0C5
:100F6000E01B80807F8808E163733F3F1C08157891
:100F70000DC0C0E06060303038191F1F0FA7000E91
:100F800045E0F0F838181C0C0C0E06070303071197
:100F90001E3E7F7F23010611061F1F1F100634010E
:100FA000030707065D041CFCFE011ADE015BFEEE72
:100FB000013BFEF6015AFE11291C1DBEBEBE7E017C
:100FC000692F69011913191AEADE1759012DFCFC62
:100FD000FCE0012AC0011A800101122D010F3FFF20
:100FE000011C3F3F3FDC5B1F0F013A0701690E19EF
:100FF00019780B3F3F37777777F7FEFEFA0118092C
:10100000FEFEF6F7F7F7FFEF018BFFDF0119111B6B
:101010006F7F524B7F3F4539464A1F661BFFFF9546
:10102000DCF8F0E084000923070F3F7EFCF0E0C00D
:101030002A01014A03015960590E3B03031C180C95
:1010400080C0F0F8FEFFFFFBF9F8F0013AF8011B51
:10105000FCFC1229932A7FE6340F03031E80C0C0D4
:10106000C0E0012926392A180CF9FB7F7F7E7C78A5
:10107000787060E01B092F01280BE0607070787CAD
:101080007E7F7FFB015AF3011AE3011DC3C3C181B7
:1010900099E9C959C13A0F015A1F010D141E1E1EAC
:1010A0003E01BA3C010915256A1E4819E639012995
:1010B000621969E97D011C180A8080E0E030307017
:1010C00070A0011A60014B4040E17A4001291629C5
:1010D00018890149221A8001692A4924072E2020F3
:1010E0006060C0C0450303FFFF00093208080C0C14
:1010F00005050303180A06060D0D0909111101F76C
:10110000052CF0F00F0FADE0E07E7E747CF0F0F87F
:10111000010318F0F01E4040C0C0E0015AA001A138
:1011200005240F0FFCFC1E09090D0D0501180A1FEF
:101130001FF5F56565606020012B3030063E61616A
:10114000C1C101012D0808101014280930301010F9
:101150001C1C10101E290E03161818180A0A0A8AD9
:101160008AEAEA3F3F0A0105241A1A1010A80B0365
:10117000030D0D08087070C0C0140E210C0C181857
:1011800010013A1801180EFCFC0C0C06068282C3F2
:10119000C3C1C140010530C0C0808005108181FEFF
:1011A000FE2B08086449F64360600310E0E02BFC66
:1011B000FCB067FFFFF8F80F0F00092E8080606019
:1011C0001F1F07072D1F1F7878B80916BA29566BFD
:1011D000303064A100153AFFFF8080C0C071711FDC
:1011E0001F08080C0C0606030301013A01019C03C9
:1011F0000302017A0601FA04010B290202707CA2A3
:101200004A046800080002030406070809000000F9
:04000005080000ED02
:00000001FF
