:020000040800F2
:10000000800A00208901000801060008B7040008E2
:10001000FD0500085F020008810B000800000000D9
:10002000000000000000000000000000090A0008B5
:100030006302000800000000B90800081D0B00085A
:10004000A3010008A3010008A3010008A301000800
:10005000A301000889090008A3010008A301000802
:10006000A3010008A3010008A3010008A3010008E0
:10007000A3010008A3010008A3010008A3010008D0
:10008000A3010008A3010008A3010008A3010008C0
:10009000A3010008A3010008A3010008A3010008B0
:1000A000A3010008A3010008A3010008A3010008A0
:1000B000A3010008A3010008A3010008A301000890
:1000C000A3010008A3010008A3010008A301000880
:1000D000A3010008A3010008A3010008A301000870
:1000E000A3010008A3010008A301000800F002F822
:1000F00000F03AF80AA090E8000C82448344AAF188
:100100000107DA4501D100F02FF8AFF2090EBAE885
:100110000F0013F0010F18BFFB1A43F0010318473B
:10012000F020000010210000103A24BF78C878C1E8
:10013000FAD8520724BF30C830C144BF04680C60ED
:10014000704700000023002400250026103A28BF35
:1001500078C1FBD8520728BF30C148BF0B60704739
:100160001FB51FBD10B510BD00F044F81146FFF7D4
:10017000F7FF01F023F900F062F803B4FFF7F2FF94
:1001800003BC00F065F800000948804709480047B3
:10019000FEE7FEE7FEE7FEE7FEE7FEE7FEE7FEE737
:1001A000FEE7FEE704480549054A064B7047000094
:1001B000210B0008ED00000880040020800A0020C8
:1001C000800600208006002070477047704710B5F9
:1001D00000F008F8006810BD10B5044600F002F801
:1001E000046010BD004870471C04002000487047A0
:1001F0001C0400207546FFF7F9FFAE46050069466E
:10020000534620F00700854618B020B5FFF7CAFF17
:10021000BDE820404FF000064FF000074FF0000807
:100220004FF0000B21F00701AC46ACE8C009ACE888
:10023000C009ACE8C009ACE8C0098D46704710B5EC
:100240000446AFF300802046BDE81040FFF795BF9D
:1002500001491820ABBEFEE726000200704700BF30
:10026000FEE7704710B56FF0040000F043FC08484B
:100270000068C0080749B0FBF1F00749086008466C
:1002800000684FF47A7148430449086010BD0000CB
:100290000800002040420F00000000200400002061
:1002A000B0F5E96F00DD7047114A126842434FF024
:1002B000E0235A6100229A611A46126942F0010253
:1002C0001A6100BF4FF0E022116901F001021AB17A
:1002D00001F48032002AF5D04FF0E022126922F0BA
:1002E00001024FF0E0231A6100229A6100BFDAE7B1
:1002F000040000200146114A12684A434FF0E023EF
:100300005A6100229A611A46126942F001021A618A
:1003100000BF4FF0E022106900F001021AB100F4B2
:100320008032002AF5D04FF0E022126922F001025B
:100330004FF0E0231A6100229A617047000000200C
:1003400070B51446402800DB3F20802900DB7F2168
:10035000002200250346C61700EB5676F210C6179A
:1003600000EB5676F610A0EBC6055CB10B4B03EB29
:10037000C2135B5C0126AE403343084E06EBC21647
:1003800073540AE0054B03EBC2135B5C0126AE40DD
:10039000B343024E06EBC216735470BD1C0000201E
:1003A0002DE9F0410246002500260020002300240C
:1003B000002791F803C00CF00F0591F803C00CF072
:1003C000100CBCF1000F03D091F802C04CEA0505F7
:1003D00091F800C0BCF1000F31D0146800202BE070
:1003E0004FF0010C0CFA00F3B1F800C00CEA030660
:1003F0009E4220D183004FF00F0C0CFA03F7BC4350
:1004000005FA03FC4CEA040491F803C0BCF1280F80
:1004100006D14FF0010C0CFA00FCC2F814C00AE03F
:1004200091F803C0BCF1480F05D14FF0010C0CFA54
:1004300000FCC2F810C0401C0828D1D31460B1F8E9
:1004400000C0BCF1FF0F34DD546800202EE000F145
:10045000080C4FF0010808FA0CF3B1F800C00CEAE0
:1004600003069E4221D183004FF00F0C0CFA03F7D4
:10047000BC4305FA03FC4CEA040491F803C0BCF148
:10048000280F05D100F1080C08FA0CF8C2F8148006
:1004900091F803C0BCF1480F07D100F1080C4FF0F0
:1004A000010808FA0CF8C2F81080401C0828CED3C6
:1004B0005460BDE8F08100BFFEE7000010B500F019
:1004C00091FF00200C49086000F01AF801200B4948
:1004D000C1F8B8010220FFF70DFF07487C3800681B
:1004E00008B1012400E000240220FFF703FF0020F0
:1004F00001490860204610BDB88121420080214298
:1005000010B50520FFF7F6FE10BD000008B501216B
:10051000082000F0D3F94FF44040ADF8000014205B
:100520008DF8030001208DF8020069460248FFF7AC
:1005300037FFFFF797FE08BD000C014070B5044679
:1005400000F062FF00251BE0002011490860FFF762
:10055000D7FF04F0800020B101200D49091D08607B
:1005600003E000200A49091D0860FFF7C9FF0120C8
:1005700007490860FFF7C4FF6006040E681CC5B297
:10058000082DE1DB002002490860FFF7B9FF70BDCC
:10059000B881214210B500F037FF012009490860F9
:1005A0000949C1F8BC01FFF7ABFF00200549091D4F
:1005B0000860FFF7A5FF00200349C1F8B801FFF765
:1005C0009FFF10BDB88121420080214210B500F08C
:1005D0001BFF01200749086000200749C1F8BC0142
:1005E000FFF78EFF01200349091D0860FFF788FF10
:1005F00010BD0000B88121420080214200BFFEE70B
:1006000010B5802000F08EF970B14FF4803000F00A
:1006100095F90121082000F0D5F90121102000F002
:10062000D1F9802000F05AF910BD70B5002414E013
:1006300044F0B00000F0A6FA002000F0A3FA102069
:1006400000F0A0FA002504E0002000F0B1FA681CD8
:10065000C5B2802DF8DB601CC4B2082CE8DB70BD8D
:100660002DE9FF4F8FB00D4616461F463A462946E4
:100670000F98FFF765FEB42474E0204601F09BF963
:1006800000223C4BCDE9060101F0FCF93A4A3B4B14
:10069000CDE9080101F0F6F90022394BCDE90A0154
:1006A00001F002F8CDE90C0100F010FF8046404651
:1006B00001F012FCCDE9000100F032FECDE90401A9
:1006C000304601F08FF9CDE90201DDE9042301F0A4
:1006D000D9F9CDE908010F9801F084F9CDE90601B7
:1006E000DDE9082300F024FFCDE90A0100F0AAFDAE
:1006F000CDE90C0100F0EAFE8146404601F0ECFB3A
:10070000CDE9000100F092FECDE90401304601F090
:1007100069F9CDE90201DDE9042301F0B3F9CDE97E
:100720000801284601F05EF9CDE90601DDE908235C
:1007300000F0FEFECDE90A0100F084FDCDE90C01D8
:1007400000F0C4FE8246504601F0F2FB00F0FF0BC1
:10075000484601F0EDFBC0B23A4659460D90FFF70E
:10076000EFFD641E14F1B40F87DC00F085F813B0C0
:10077000BDE8F08F0000F03F4AD8124DFB21094040
:100780000080664010B5FFF7C1FEC820FFF788FD66
:10079000A82000F0F7F93F2000F0F4F9DA2000F08B
:1007A000F1F9122000F0EEF9D32000F0EBF900206F
:1007B00000F0E8F9402000F0E5F9A12000F0E2F9AE
:1007C000812000F0DFF90F2000F0DCF9A42000F018
:1007D000D9F9A62000F0D6F9D52000F0D3F9F02001
:1007E00000F0D0F98D2000F0CDF9142000F0CAF906
:1007F000AE2000F0C7F9202000F0C4F9022000F07C
:10080000C1F9C82000F0BEF9B02000F0BBF900200B
:1008100000F0B8F9102000F0B5F9402000F0B2F96E
:10082000D92000F0AFF9222000F0ACF9DB2000F075
:10083000A9F9202000F0A6F9AF2000F0A3F900F0FC
:1008400005F8FFF7F2FE00F00CF810BD10B58D2092
:1008500000F098F9102000F095F9AE2000F092F920
:1008600010BD10B58D2000F08DF9142000F08AF92C
:10087000AF2000F087F910BD70B5002417E044F0F8
:10088000B00000F07FF9002000F07CF9102000F0AB
:1008900079F9002507E0074901EBC411485D00F034
:1008A00087F9681CC5B2802DF5DB601CC4B2082C2A
:1008B000E5DB70BD1C0000207047000029B1064A2E
:1008C00092690243044B9A6104E0034A92698243AD
:1008D000014B9A6170470000001002400149887284
:1008E000704700000010024010B5014600220023AE
:1008F00000204A11012A02D1094C236806E0022A8D
:1009000002D1074C236A01E0054C636A01F01F0223
:10091000012494401C400CB1012000E0002010BDD7
:100920000010024001460020034A92680A400AB1C2
:10093000012000E0002070470010024011490968C2
:1009400021F480310F4A11601146096821F4802199
:100950001160B0F5803F03D0B0F5802F0ED106E0D6
:100960000849096841F48031064A116007E00549E9
:10097000096841F4A021034A116000E000BF00BFF4
:10098000704700000010024010B50820FFF7CAFFB2
:1009900048B10820FFF7A2FF3120FFF7A5FF10B1F3
:1009A000012000F01FF81020FFF7BCFF48B1102015
:1009B000FFF794FF3920FFF797FF10B1022000F0F6
:1009C00017F810BD29B1064A527A0243044B5A72F5
:1009D00004E0034A527A8243014B5A727047000086
:1009E00000100240014908667047000000004242C2
:1009F00001460020034A506820F00300084350607D
:100A00007047000000100240704710B500F002F877
:100A100010BD00000CB50020019000903348006824
:100A200040F480303149086000BF3048006800F46D
:100A3000003000900198401C0190009818B901986E
:100A4000B0F5A06FF1D12948006800F4003010B172
:100A50000120009001E0002000900098012843D17F
:100A60002348006840F010002149086008460068EB
:100A700020F0030008600846006840F002000860AB
:100A80001A48406819494860084640684860084666
:100A9000406840F4806048600846406820F47C105C
:100AA00048600846406840F4E8104860084600681E
:100AB00040F08070086000BF0C48006800F00070D3
:100AC0000028F9D00948406820F003000749486031
:100AD0000846406840F00200486000BF0348406894
:100AE00000F00C000828F9D10CBD000000100240F5
:100AF00000200240042808D14FF0E021096941F0AC
:100B000004014FF0E022116107E04FF0E021096994
:100B100021F004014FF0E02211617047704700009E
:100B200010B51348006840F00100114908600846FC
:100B30004068104908400E494860084600680E4960
:100B400008400B4908600846006820F480200860CF
:100B50000846406820F4FE0048604FF41F0088609B
:100B6000FFF753FF4FF000600449086010BD00001C
:100B7000001002400000FFF8FFFFF6FE08ED00E065
:100B800000BFFEE710B50446FFF704FD7820FFF72D
:100B9000D5FCFFF793FC0020FFF7D0FCFFF78EFC9D
:100BA0002046FFF7CBFCFFF789FCFFF70FFD10BDD8
:100BB00010B50446FFF7EEFC7820FFF7BFFCFFF707
:100BC0007DFC4020FFF7BAFCFFF778FC2046FFF7DA
:100BD000B5FCFFF773FCFFF7F9FC10BD490050EAC4
:100BE000C12018BF04204A0D18BF40F0010040F298
:100BF000FF72B2EB515F08BF40F00200012808BF4E
:100C0000052070472DE9F74F144694B00021C4E940
:100C100002111599079121F00045C9498D4206DC62
:100C20001599C4E9000117B00020BDE8F08FC5494F
:100C3000DFF814A3A9423CDD0799C44E0029C44F34
:100C4000C44A1599534619DD01F05CF8554506D0A4
:100C5000C14AC24B01F056F8C4E900010AE04FF066
:100C6000D352BE4B01F04EF832463B4601F04AF8F3
:100C7000C4E9000117B00120BDE8F08F00F058FC76
:100C8000554506D0B44AB54B00F052FCC4E900010A
:100C90000AE04FF0D352B14B00F04AFC32463B46DB
:100CA00000F046FCC4E9000117B04FF0FF30BDE88A
:100CB000F08FAB49A942159978DB21F000418346BA
:100CC0008846A84AA84B00F0DDFE0022A74B00F0A2
:100CD0002FFC00F041FE099000F06DFE06460F4625
:100CE0009C4A534600F0CEFE43465A4600F0FEFFB3
:100CF00080468A46984A994B3046394600F0C2FEF3
:100D00002A0D01250B924246534600F0EFFF032DBA
:100D1000C4E9000139D00B98C1F30A51401A05EB20
:100D200045111139814230DA9148C346784400EBCD
:100D30000510CDF80CA00C90D0E9002330463946C0
:100D400000F0A0FE02460B46049106905846039917
:100D500000F0D8FF80468A4602460B465846039963
:100D600000F0D0FF049B069A00F0CCFF83460C985D
:100D700003913946D0E90223304600F083FE5A46FB
:100D8000039B00F0BFFF6D1CBDE707980028A2BFC2
:100D9000099817B0BDE8F08F616881F0004161608B
:100DA000099817B04042BDE8F08FFFE784461598D8
:100DB000C1F31301C0F30A50A0F2F5304FEA6018F6
:100DC00000F01F06C6F12000139000200690079047
:100DD00041F4801E05206D4676B1664A08EB00019D
:100DE0007A4452F8213002EB8101B3404A681399EA
:100DF00022FA01F1194305E05F4908EB000279444A
:100E000051F82210A1FB0E27A1FB0C131A449A42A1
:100E100034BF0123002303EB070A05EB8003D3E96A
:100E200001B70F448F4234BF0121002193448B440A
:100E300011B1934502D903E0934501D2012100E0AD
:100E40000021C3E901B7514445F82010011EA0F16B
:100E50000100C1DC0298059F00F10050800F129044
:100E60000298DDE90356800000F0A5FD8346284680
:100E70000D9100F0B7FD6FF01D0201F0F1F8CDE922
:100E80000E01304600F0AEFD6FF03D0201F0E8F8D3
:100E900080468A46384600F0A5FD6FF05D0201F0FD
:100EA000DFF8074642465346119100F041FBDDE969
:100EB0000E2300F03DFB5A460D9B00F039FB002548
:100EC0000E465A4628460D9B00F01CFFDDE90E2316
:100ED00000F018FF4246534600F014FF3A46119BBB
:100EE00000F004FFDFF898A0244A534600F0CAFD42
:100EF00007468846234A244B3146284600F0C2FD67
:100F00003A46434600F014FB074688464FF0A84295
:100F100053463146284600F0B5FD3A46434600F0B8
:100F200007FB159A12F0004F04D0129A81F000418D
:100F300052421292C4E90001129817B0BDE8F08F36
:100F4000FB21E93F7CD90240FB21F93F7370032E5E
:100F50008A19A33B000040543163621A61B4D03D4A
:100F6000FB21394183C8C96D305FE43F0000E03F99
:100F7000F01300006C1300004E130000182D4454B1
:100F8000FB21F93D3326A611460B113C2DE9FF4DFF
:100F900021F0004807460C46B8F1795F08DA00F006
:100FA000DBFC002801BF0020324904B0BDE8F08D11
:100FB0003A4623461046194600F064FD05460246AF
:100FC0002D480E460B460621784400F05DF82A466F
:100FD000334600F057FDDDE9022382468B46384652
:100FE000214600F04FFD04460F4652465B46284618
:100FF000314600F047FD22463B4600F083FE07469F
:101000008A464FF0FF322846314601F029F81B4A44
:1010100090450ADA3A46534600F074FE04B00022C6
:10102000BDE8F04D134B00F061BE154A4245A8BF24
:10103000A8F500154FF00004B8BF124D22462B460C
:1010400000F060FE0646884622462B4600200949ED
:1010500000F058FE04460D463A4653463046414697
:1010600000F050FE04B022462B46BDE8F04D00F0E3
:101070003DBE00000000F03F241100003333D33F99
:101080000000E93F0000D23F2DE9F0414F1E00EB88
:10109000C7010446D1E9000115461E4637F0060295
:1010A0000DD02A46334600F0EDFC7F1E04EBC7034B
:1010B000D3E9002300F03CFA37F00602F1D1022F09
:1010C00025D0042F13D0062F18BFBDE8F0812A4683
:1010D000334600F0D7FCD4E90A2300F029FA2A4667
:1010E000334600F0CFFCD4E9082300F021FA2A4669
:1010F000334600F0C7FCD4E9062300F019FA2A466B
:10110000334600F0BFFCD4E9042300F011FA2A466C
:10111000334600F0B7FCD4E9022300F009FA2A466E
:10112000334600F0AFFCD4E90023BDE8F04100F005
:10113000FFB900002DE9FF4D054621F0004084B0C5
:101140000C46B0F1795F0BDA2846FFF747FD04281B
:1011500008BF00F06FF8284608B02146BDE8F08DC2
:101160002A460B46104600F08DFC06460F462A46DE
:10117000234600F087FC804626488A4632463B4696
:1011800005217844FFF780FF83461098029160B3F1
:10119000214A224B4046514600F074FCCDE9000143
:1011A0005A4640465146029B00F06CFC82468846F7
:1011B000DDE906014FF0FF3200F052FF5246434690
:1011C00000F0A0FD32463B4600F05CFCDDE9062362
:1011D00000F098FDDDE9002300F094FD08B02A46F8
:1011E0002346BDE8F04D00F081BD0B465A4630461F
:1011F000394600F047FC084A084B00F099F942468E
:10120000534600F03FFC08B02A462346BDE8F04DA7
:1012100000F08EB962100000495555555555C5BFAF
:10122000012200F01DBF002213461046114600F0B7
:101230003BBA0000024A0020110700F011BF000075
:1012400001FDFFFF2DE9F041C1F30A52A2F2FF3682
:101250002F4A304B0D460446142E2FDA002E12DA98
:1012600000F066F90022134600F00AFD4CD2002D72
:10127000BCBF4FF00045002446DB55EA040018BF10
:10128000254D19D140E0DFF894C02CFA06F705EAA5
:10129000070C5CEA040C08BFBDE8F08100F048F9D7
:1012A0000022134600F0ECFC2ED2002D03DD4FF49B
:1012B0008010F0400544BD43002425E0332EC8BF14
:1012C000BDE8F081A6F1140C4FF0FF3727FA0CF7B8
:1012D0003C4208BFBDE8F08100F008FD0022134643
:1012E00000F0CEFC10D2002D0DDD142E08BF6D1CB9
:1012F00009D0C6F13400012101FA00F02044A042D7
:1013000038BF6D1C0446BC4329462046BDE8F08129
:101310009C7500883CE4377E0000F03FFFFF0F0023
:1013200000B5244B21F0004287B09A42DCBF002276
:10133000134629DD204B9A4208D140B94FF00100F5
:10134000FEF74AFFFFF76FFF07B000BD03DBFFF7B3
:1013500067FF07B000BD02AAFFF754FC10F00301BD
:1013600004BF0DF1080C9CE80F000DD001200129ED
:101370000ED0022914D00DF1080C00909CE80F004B
:10138000FFF7D8FE07B000BDFFF700FE07B000BDB5
:101390000DF1080C00909CE80F00FFF7CBFE05E074
:1013A0000DF1080C9CE80F00FFF7F0FD07B081F08D
:1013B000004100BDFB21E93F0000F07FFFF7E2F9AB
:1013C0000EE000240AE0E2B201233C211E20FFF7D8
:1013D00047F94FF4FA70FEF763FF641C1E2CF2DB32
:1013E000EFE7000008B54FF40040ADF800004820DA
:1013F0008DF8030001208DF8020069460148FEF7D0
:10140000CFFF08BD000C014008B54FF40040ADF817
:10141000000014208DF8030001208DF802006946B9
:101420000148FEF7BDFF08BD000C014000B5254B8B
:1014300021F0004287B09A4203DC0022134600925A
:101440002BE0214B9A4208D140B94FF00100FEF742
:10145000C3FEFFF7E8FE07B000BD03DBFFF7E0FEC9
:1014600007B000BD02AAFFF7CDFB10F003014FF05B
:1014700001000DD0012914D002291AD00DF1080C59
:101480009CE80F00FFF782FD07B081F0004100BD2E
:101490000DF1080C00909CE80F00FFF74BFE07B021
:1014A00000BD0DF1080C9CE80F00FFF76FFD07B0C1
:1014B00000BD0DF1080C00909CE80F00FFF73AFE0C
:1014C000E2E70000FB21E93F0000F07F21F000424D
:1014D000A2F16052B2F5801F01F0004328BFD2F1A3
:1014E0007F6C0BD95FEA001C43EAC20242EB5070EA
:1014F00018BF704728BF20F001007047B2F5801F69
:10150000BCBF184670474FEA410C1CF5001F02D2C1
:10151000084600F06EBD70B500F05EFB000000896B
:10152000FFF7F6BF4FF00040A0F5800070470000C5
:1015300010B591EA030F48BF83F0004300F1EA833E
:10154000841A71EB030C05D2121943EB0C03001B38
:1015500061EB0C01DFF824E14FEA1154A4EB135CBA
:101560001EEA430F18BF9EEA445F73D023EA0E03BE
:10157000DCF1200E21EA045143F4801332D322FA25
:101580000CFE10EB0E0023FA0CFE41EB0E01CCF129
:10159000200E03FA0EFE10EB0E0051F10001B1F522
:1015A000801FCCF1200E32D201EB045112FA0EF260
:1015B000BDE8104058BF7047401C38BF5FEA420288
:1015C00018BF7047002814BF20F0010041F100014E
:1015D0004FEA410313F5001F38BF7047A1F1C04126
:1015E00000F048BB012A43EB0302ACF1200CDCF114
:1015F0001F0E32BF4FF0000E23FA0CF310EB030066
:1016000041EB0451B4EB115FD0D0A1EB045101F5D3
:10161000801149085FEA300001EB04510ED350F10C
:10162000000038BF12FA0EFE08D1BDE81040C9E72D
:10163000401C38BF5FEA4202CAD1C3E7BDE8104090
:101640004FEA410313F5001F38BF7047A1F1C041B5
:1016500000F010BB9EEA445F08D011EA5E0FBDE8BF
:10166000104004BF01F0004100207047BDE8104069
:1016700070B500F0B1FA00BF64FBBE3E0000E0FFB1
:1016800002494FF0000000F0B9BC00BF0000F87F35
:10169000491058BFC1F140415B1058BFC3F14043EE
:1016A0008B42EFF3008070472DE9C04130B4DFF882
:1016B000A0C23CEA111418BF3CEA131400F0EC80FD
:1016C00081EA03051CEA111444EAD57418BF1CEA28
:1016D000131500F0C780A4EB05044FF0004545EA60
:1016E000C12145EAC32341EA505143EA525304F170
:1016F0007F74994204F500344FEAC0204FEAC222B9
:1017000008BF904200F09C804FEA13650FF240162C
:10171000765D4FEA134506FB05F7C7F1807706FBB8
:1017200007F74FEAD737A7FB03687642C8F580383A
:10173000A7FB06CE38BFA8F1010807FB08E64FF06B
:10174000000EA6FB028CE6FB03CEDCF1000CCEF112
:10175000004E38BFAEF1010EA6FB0C584FF000074B
:101760004FF00005E6FB0E87A1FB08C6A0FB07CEE5
:1017700016EB0E0645F10005E1FB076515F1E04E9D
:101780007EBFA4F580345FEA46066D4116F18007FE
:1017900045F100054FEA17274FEA066647EA056755
:1017A000A6F1DE46B6F1805F4FEA15251FD938460F
:1017B00024F0010C05EBC471BCF1FE6F01EB0C11C0
:1017C00002D8F0BCBDE8008124425CBF01F5801E58
:1017D0009EEAC47F02D4F0BCBDE80081244238D424
:1017E000F0BCA1F1C041BDE8004100F043BA4FEAAE
:1017F000D22242EA43524FEAD323A7FB02864FEAA2
:10180000D02040EA415007FB03661EEA0E0F4FEA64
:10181000D12105FB026658BFA6EB0056B6EB005679
:101820004FEA520E4EEAC37E18EB0E0E56EB530EE5
:10183000BDD518EB02085E417F1C55F10005B6E7E7
:101840004FF480154FF000074FF000064FF00008EE
:10185000ADE7F0BC4FF0000001F1C04101F00041E4
:10186000BDE8008111EA0C1F0CEA131500D00CE052
:1018700013EA0C1F00F025804FF00000F0BC81EA55
:10188000030101F00041BDE80081F0BCBDE800416A
:1018900081EA030100F0EEB9F0BCBDE8004170B58B
:1018A00000F09AF9097EFC3E00F007B881EA0301D6
:1018B0004FF0000001F00041704781EA030100F0A1
:1018C000D9B9F0BCBDE800414FF000002149704794
:1018D000FFFDFBF9F7F5F4F2F0EEEDEBE9E8E6E4F5
:1018E000E3E1E0DEDDDBDAD8D7D5D4D3D1D0CFCD7C
:1018F000CCCBCAC8C7C6C5C4C2C1C0BFBEBDBCBBB5
:10190000BAB9B8B7B6B5B4B3B2B1B0AFAEADACABAF
:10191000AAA9A8A8A7A6A5A4A3A3A2A1A09F9F9E89
:101920009D9C9C9B9A99999897979695959493933B
:10193000929191908F8F8E8E8D8C8C8B8B8A8989D2
:101940008888878786858584848383828281818055
:101950000000FF070000F87F4FEA41034FEA5353AE
:10196000A3F58063D3F11E03C8BFD3F1210C0CDDB6
:101970004FF0004242EAC12242EA505232FA03FCDE
:101980008CEAE17CACEBE1707047102BC4BF002007
:10199000704703F5787CBCF1FF3F04D06FF0004244
:1019A00082EA2100704770B500F016F94992248050
:1019B00000207047F2E710F0004248BF4042B0FA02
:1019C00080F310FA03F10AD0C3F11D0303F580631D
:1019D0004FEA415002EB035202EBD12170474FF026
:1019E00000007047B0FA80F310FA03F10AD0C3F197
:1019F0001D0303F580634FEA41504FEA035202EBA7
:101A0000D12170474FF000007047000051EA030CED
:101A100017D41CF5801F58BFBCF5801F00F106804D
:101A2000994218BF704708BF9042704707D711F519
:101A3000801F58BF13F5801F19D4994270478942FF
:101A400070471CF5801F08D5BCF5801FF7D58B4269
:101A500018BF704708BF824270474FF4001C1CEB50
:101A6000410F38BF1CEB430F01D28B42704770B55A
:101A700000F0B2F8922449004FF000514FF080532B
:101A8000FFF706BEDFF848C170B51CEA111E1EBF85
:101A90001CEA13159EEA0C0F95EA0C0F00F06F80FC
:101AA00081EA030423EA4C134EEAD47E21EA4C1166
:101AB00041F4801143F48013AE44A1FB024CA0FB1F
:101AC0000365AEF17F7E361955EB0C05A1FB034C87
:101AD0004CF10003A0FB021C16EB0C06654153F110
:101AE0000003094218BF46F0010613F4007F0BD132
:101AF0004FEA03314FEA0530340341EA155140EA19
:101B000016506FF003020AE04FEAC3214FEAC520E6
:101B1000F40241EA555140EA56506FF0020202EBDE
:101B20002E4201EB025585EACE710AD05FEA440CE1
:101B300018BF24F0004450F1000041F1000120EAF8
:101B4000D47040F2FE7C624500D270BDA84214BF42
:101B50004FF080444FF04044002E08BF0024BEF1F7
:101B6000806FA8BFA1F1C041BDE8704080F28280C3
:101B70004FF0000001F1C04101F0004170479EEAC2
:101B80000C0F0CEA131518BF95EA0C0F06D04FF096
:101B9000000081EA030E0EF0004170BD00F01CF859
:101BA0008900013E00F007B800F009B84FEA430C85
:101BB0005FEA5C5C08D081EA030100F05BB84FEAA1
:101BC000410C5FEA5C5CF6D14FF0000001497047C0
:101BD0000000FF070000F87F0EF1020E2EF0030E4A
:101BE0005EF8046B364205D4012A43EB030515F574
:101BF000001F12D8012841EB010C1CF5001F0CD866
:101C00000ED14FEAD17C15F5001F0CEB4C0C0CF1FA
:101C1000020C08BF4CEBD37C04E04FF0080C01E051
:101C20004FEAD37C0CEB4C0526FA05F606F00706C6
:101C3000B6F1040C06D20EEB860CBDE870404CF0F9
:101C4000010C6047DFE80CF0090B02024FF0004185
:101C50004FF00000A1F5002170BD19461046012883
:101C600051EB010418BFD4F5001484BF002001F02B
:101C7000004170BD0808A0F500114FEA310170471E
:101C800053EA010C17D41CF5801F58BFBCF5801F08
:101C900000F106808B4218BF704708BF8242704730
:101CA00007D713F5801F58BF11F5801F19D48B4239
:101CB00070479B4270471CF5801F08D5BCF5801FFC
:101CC000F7D5994218BF704708BF904270474FF44C
:101CD000001C1CEB430F38BF1CEB410F01D2994293
:101CE00070470FB40CBC03BCFFF7C1BE91EA030FF1
:101CF00010B581F000413FF523AC83F0004300F0C4
:101D000009B8000010B591EA030F48BF83F0004303
:101D10003FF516AC841A71EB030C07D212198CF044
:101D2000004C43EB0C03001B61EB0C01DFF8A4E15A
:101D30004FEA1154A4EB135C1EEA430F18BF9EEA4E
:101D4000445F00F0B08023EA6E03524221EA04515E
:101D5000C3EB6E0338BF5B1EDCF1200E25D322FAE5
:101D60000CFE10EB0E0043FA0CFE41EB0E01CCF121
:101D7000200E03FA0EFE10EB0E0051F10001CCF123
:101D8000200E29D412FA0EF201EB0451BDE81040E6
:101D900058BF7047401C1CBFB2F1004F704700286D
:101DA0000CBF491C20F00100704712EB020E43EB00
:101DB000030218BF4FF0010E4EEA4202ACF1200CB4
:101DC000DCF11E0E54D943FA0CFE10EB0E0051F15B
:101DD000FF31CCF11E0ED5D50EF1010E12FA0EFE1A
:101DE000404141EB010101EB445C5FEA5C5C10D9CE
:101DF00010EBDE7001EB045138BFBEF1004FBDE8BF
:101E0000104018BF704700280CBF491C20F001008B
:101E1000704730D24FEAD42C11F5001124F400643D
:101E20001BD0B1FA81F20B3AA41AA41ED2F12003FE
:101E3000914030FA03F31943904001EBCC71002C30
:101E400001EB0451BDE81040A8BF704701F1C0414B
:101E50004FF0000001F000417047B0FA80F310FA33
:101E600003F100D110BDE41A173C4805C90AE4E7A4
:101E700001EB045110BD491001EB0451BDE81040C5
:101E80004FEA300002E04FF0000170474A0008BFFF
:101E90000042F8D0B2F5001F28BF704701F00041A2
:101EA0004FF0000070479EEA445F07D011EA5E0FD2
:101EB000BDE8104004BF002100207047BDE810407D
:101EC00070B5FFF789FE00BF40DFF63E83F00041AA
:101ED000104670470000E0FF43004FEAD30C4FEA82
:101EE0003C0C43401FBF40070CF1605113F0FE4F04
:101EF00070471CF0006F03D100200CF000417047C8
:101F00000CF0004343EA507010B540EACC0000F0FA
:101F10002AF800BF000000924FEA0001FFF7AABEB6
:101F20004FF000414FF00000A1F500217047000084
:101F300041000B0ED3F19E0208D950F400034FEA82
:101F4000032323FA02F048BF4042704710B500F067
:101F50000AF800BF49922480002070476FF00042C9
:101F600082EA200070470EF1020E2EF0030E5EF89A
:101F7000044B244204D44FEA4102B2F17F4F11D8FE
:101F80004FEA4003B3F17F4F0CD80ED14FEAD07C1B
:101F9000B2F17F4F0CEB4C0C0CF1020C08BF4CEB78
:101FA000D17C04E04FF0080C01E04FEAD17C0CEB4F
:101FB0004C0324FA03F404F00704B4F1040C06D231
:101FC0000EEB840CBDE810404CF0010C6047DFE8DC
:101FD0000CF0070802024FF00040A0F5800010BD91
:101FE0000846420018BFD2F1807288BF00F000405E
:101FF00010BDFF2141EAD050C00570470CF00F031F
:10200000092B08BF082000F059800A2B0BD0082BA1
:1020100018BF704708BF1CF0400F0AD04FF00000F7
:102020004FF0000170471CF0400F18BF4FF0004008
:1020300070471CF0100F08D020F0704300F07F4272
:1020400042EAD3014FEA4370704700F0604021F04C
:102050007F4242EA000201F07F4040EA727070471E
:102060004FF0FF0C4CF4E06C1CEA11531CBF9CEACF
:10207000030C9445C2BFDA4201EB02517047002BBA
:102080000DD0BCF1000F0FD0002A01F00041A4BF19
:1020900041F0E04141F07F614FF00000704701F0F6
:1020A00000414FF00000704750EA01334FF09B0CA5
:1020B00018BF4CF0806C7FF4E3AA70471CF4801FBB
:1020C00011D01CF4E02F03D06FEACC3149007047E7
:1020D0004FF04050EFF3008222F0704242EA0002DB
:1020E00082F3008870474FF0000070470000000046
:1020F0004C5555555555A53F7751C1166CC156BF26
:102100009015CB19A001FA3EAD529C804F7E92BE35
:10211000C4B1B4BD9EEE213ED43888BEE9FAA8BD54
:1021200000004054FB21F93F3163621A61B4D03D95
:102130000000601A61B4D03D7370032E8A19A33B6E
:102140000000002E8A19A33BC14920259A837B39C0
:1021500000000000000000006E83F9A22915444E23
:10216000D15727FCC0DD34F5999562DB4190433CA3
:10217000AB6351FE61C5BBDE3A6E24B7E0D24D427F
:10218000EA2E49061C92D1091CEB1DFE3EA729B17F
:10219000F53582E88444BB2E26709CE9417E5FB40D
:1021A00039D69139F43953838B5F849C3B28F9BD30
:1021B000FF97F81F0F9805DE8B112FEF1F6D0A5A3E
:1021C000CF7E366DB709CB27663F464F2DEA5F9E1F
:1021D000C7BA27757BF1E5EBF739073DEA92528ADA
:1021E000B15FFB6B085D8D1FA6F810111111813FC7
:1021F000D561C119A0012ABF7DFEB157E31DC73EBD
:10220000EB9C2B8AE6E55ABE7CD5CF5A3AD9E53D00
:1022100030220008000000201C00000028010008F7
:102220004C2200081C000020640A00004401000841
:10223000000000000000000000A24A0400000000AE
:0C2240000000000001020304060708096A
:04000005080000ED02
:00000001FF
