:020000040800F2
:10000000D80C0020C9010008110700086705000886
:100010000D0700086F030008390D000800000000FC
:10002000000000000000000000000000C10B0008FC
:100030007303000800000000730A0008D50C0008D4
:10004000E3010008E3010008E3010008E301000800
:10005000E3010008410B0008E3010008E301000888
:10006000E3010008E3010008E3010008E3010008E0
:10007000E3010008E3010008E3010008E3010008D0
:10008000E3010008E3010008E3010008E3010008C0
:10009000E3010008E3010008E3010008E3010008B0
:1000A000E3010008E3010008E3010008E3010008A0
:1000B000E3010008E3010008E3010008E301000890
:1000C000E3010008E3010008E3010008E301000880
:1000D000E3010008E3010008E3010008E301000870
:1000E000E3010008E3010008E301000800F002F862
:1000F00000F05AF80AA090E8000C82448344AAF168
:100100000107DA4501D100F04FF8AFF2090EBAE865
:100110000F0013F0010F18BFFB1A43F0010318473B
:100120002C0D00004C0D00000A444FF0000C10F89C
:10013000013B13F0070408BF10F8014B1D1108BF65
:1001400010F8015B641E05D010F8016B641E01F805
:10015000016BF9D113F0080F1EBF10F8014BAD1C55
:100160000C1B09D16D1E58BF01F801CBFAD505E073
:1001700014F8016B01F8016B6D1EF9D59142D6D3CD
:10018000704700000023002400250026103A28BFF5
:1001900078C1FBD8520728BF30C148BF0B607047F9
:1001A0001FB51FBD10B510BD00F0A7F81146FFF731
:1001B000F7FF00F0EFFD00F0C5F803B4FFF7F2FF22
:1001C00003BC00F0CDF8000009488047094800470B
:1001D000FEE7FEE7FEE7FEE7FEE7FEE7FEE7FEE7F7
:1001E000FEE7FEE704480549054A064B7047000054
:1001F000D90C0008ED000008D8060020D80C00201B
:10020000D8080020D808002040EA0103024630B593
:100210009B0710D14FF0013400E008C208C91D1B34
:100220009D4315EAC41FF8D013F0FF0102F8011B2B
:100230000DD01B0AF8E711F8013B002B02F8013B37
:1002400005D011F8013B002B02F8013BF3D130BD82
:1002500010B5431C02E010F8011B71B18107FAD1FF
:100260004FF0013202C88C1A8C4314EAC211F9D043
:10027000C01A0A0603D0C01E10BDC01A10BD0A0461
:1002800001D0801E10BD0902FCD0401E10BD421ED0
:1002900012F8013F002BFBD111F8013B002B02F8B3
:1002A000013BF9D170474FF0000200B51346944668
:1002B0009646203922BFA0E80C50A0E80C50B1F1BE
:1002C0002001BFF4F7AF090728BFA0E80C5048BFD2
:1002D0000CC05DF804EB890028BF40F8042B08BF70
:1002E000704748BF20F8022B11F0804F18BF00F86C
:1002F000012B7047704770477047754600F02CF827
:10030000AE4605006946534620F00700854618B002
:1003100020B5FFF767FFBDE820404FF000064FF023
:1003200000074FF000084FF0000B21F00701AC462A
:10033000ACE8C009ACE8C009ACE8C009ACE8C00949
:100340008D46704710B50446AFF300802046BDE8E7
:100350001040FFF732BF00000048704778060020C9
:1003600001491820ABBEFEE726000200704700BF1F
:10037000FEE7704710B56FF0040000F097FC0848E6
:100380000068C0080749B0FBF1F00749086008465B
:1003900000684FF47A7148430449086010BD0000BA
:1003A0006406002040420F000000002004000020EE
:1003B000B0F5E96F00DD7047114A126842434FF013
:1003C000E0235A6100229A611A46126942F0010242
:1003D0001A6100BF4FF0E022116901F001021AB169
:1003E00001F48032002AF5D04FF0E022126922F0A9
:1003F00001024FF0E0231A6100229A6100BFDAE7A0
:10040000040000200146114A12684A434FF0E023DD
:100410005A6100229A611A46126942F001021A6179
:1004200000BF4FF0E022106900F001021AB100F4A1
:100430008032002AF5D04FF0E022126922F001024A
:100440004FF0E0231A6100229A61704700000020FB
:100450002DE9F0410246002500260020002300245B
:10046000002791F803C00CF00F0591F803C00CF0C1
:10047000100CBCF1000F03D091F802C04CEA050546
:1004800091F800C0BCF1000F31D0146800202BE0BF
:100490004FF0010C0CFA00F3B1F800C00CEA0306AF
:1004A0009E4220D183004FF00F0C0CFA03F7BC439F
:1004B00005FA03FC4CEA040491F803C0BCF1280FD0
:1004C00006D14FF0010C0CFA00FCC2F814C00AE08F
:1004D00091F803C0BCF1480F05D14FF0010C0CFAA4
:1004E00000FCC2F810C0401C0828D1D31460B1F839
:1004F00000C0BCF1FF0F34DD546800202EE000F195
:10050000080C4FF0010808FA0CF3B1F800C00CEA2F
:1005100003069E4221D183004FF00F0C0CFA03F723
:10052000BC4305FA03FC4CEA040491F803C0BCF197
:10053000280F05D100F1080C08FA0CF8C2F8148055
:1005400091F803C0BCF1480F07D100F1080C4FF03F
:10055000010808FA0CF8C2F81080401C0828CED315
:100560005460BDE8F08100BFFEE7000010B500F068
:1005700049FC00200C49086000F01AF801200B49E2
:10058000C1F8B8010220FFF73DFF07487C3800683A
:1005900008B1012400E000240220FFF733FF00200F
:1005A00001490860204610BDB881214200802142E7
:1005B00010B50520FFF726FF10BD000008B501218A
:1005C000082000F057FA4FF44040ADF80000142026
:1005D0008DF8030001208DF8020069460248FFF7FC
:1005E00037FFFFF7C7FE08BD000C014070B5044699
:1005F00000F01AFC00251BE0002011490860FFF7FD
:10060000D7FF04F0800020B101200D49091D0860CA
:1006100003E000200A49091D0860FFF7C9FF012017
:1006200007490860FFF7C4FF6006040E681CC5B2E6
:10063000082DE1DB002002490860FFF7B9FF70BD1B
:10064000B881214210B500F0EFFB01200949086094
:100650000949C1F8BC01FFF7ABFF00200549091D9E
:100660000860FFF7A5FF00200349C1F8B801FFF7B4
:100670009FFF10BDB88121420080214210B500F0DB
:10068000D3FB01200749086000200749C1F8BC01DD
:10069000FFF78EFF01200349091D0860FFF788FF5F
:1006A00010BD0000B88121420080214270B530B9F0
:1006B00030250D7000264D1C29462E7070BD0A464F
:1006C0000446002800DA40420AE00A2590FBF5F6CD
:1006D00005FB1605303501F8015B0A2590FBF5F0A6
:1006E0000028F2DC002C02DA2D2501F8015B002540
:1006F0000D704B1E06E015781E7816701D70521C8A
:100700005B1E00BF9A42F6D300BFD7E700BFFEE7EB
:1007100010B5802000F0E2F970B14FF4803000F0A5
:10072000E9F90121082000F029FA0121102000F048
:1007300025FA802000F0AEF910BD70B5002414E059
:1007400044F0B00000F0FAFA002000F0F7FA1020B0
:1007500000F0F4FA002504E0002000F005FB681C1E
:10076000C5B2802DF8DB601CC4B2082CE8DB70BD7C
:100770002DE9F04706460C4617469846DDF82090CE
:1007800000251DE045F0B0013144C8B200F0D6FAB2
:10079000102101EB141000F0D1FA04F00F0000F06A
:1007A000CDFA4FF0000A07E019F8010B00F0DCFA6F
:1007B0000AF1010000F0FF0AC245F5DB681CC5B272
:1007C000BD42DFDBBDE8F08710B5FFF7F7FEC820BC
:1007D000FFF7EEFDA82000F0B1FA3F2000F0AEFADE
:1007E000DA2000F0ABFA122000F0A8FAD32000F0D3
:1007F000A5FA002000F0A2FA402000F09FFAA12004
:1008000000F09CFA812000F099FAFF2000F096FA9F
:10081000A42000F093FAA62000F090FAD52000F072
:100820008DFAF02000F08AFA8D2000F087FA14206B
:1008300000F084FAAE2000F081FA202000F07EFA69
:10084000022000F07BFAC82000F078FAB02000F017
:1008500075FA002000F072FA102000F06FFA4020C4
:1008600000F06CFAD92000F069FA222000F066FA54
:10087000DB2000F063FA202000F060FAAF2000F0E7
:100880005DFA00F005F8FFF758FF00F00CF810BD16
:1008900010B58D2000F052FA102000F04FFAAE2073
:1008A00000F04CFA10BD10B58D2000F047FA14206E
:1008B00000F044FAAF2000F041FA10BDF8B505464B
:1008C0000E461446A4F12000C4B2064800EB041002
:1008D000F206110E6A060090100E08230222FFF79E
:1008E00047FFF8BDB20000202DE9F04387B08046F5
:1008F0000E461746142102A8FFF7D5FC394602A878
:10090000FFF782FC02A8FFF7A3FC814635460024CE
:1009100012E0082D00DB11E002A8005D8DF8040054
:1009200002A9601C085C8DF80500E9B201AA4046E6
:1009300000F008F86D1CA41C4C45EADB00BF07B0B2
:10094000BDE8F083F8B506460F461546002400BF03
:1009500021E0287804EB0411104A02EB410191F8E0
:100960002010884216D1697804EB041002EB400095
:1009700090F8210081420DD104EB0410114601EBE7
:1009800040003A07110E72060090100E102302224A
:10099000FFF7EEFE641C3C2CDBDBF8BD08000020FA
:1009A0000FB42DE9F047A2B081460F462C98FFF70F
:1009B0004FFC824600242DA82190642108A8FFF74F
:1009C00072FC00BF35E02C98005D252810D1601C1A
:1009D0002C99085C64280BD1219901C921916946A1
:1009E000FFF764FE694608A8FFF751FC641C1FE08E
:1009F0002C98005D25280CD1601C2C99085C73286C
:100A000007D1219802C8219008A8FFF740FC641C78
:100A10000EE008A8FFF71CFC80462C98005D08A992
:100A200001F80800002108AA08F10100115400BFD4
:100A3000641C5445C7DB00202190002500260024BB
:100A40000DE0E819C6B2102E00DB0CE008A8025D2C
:100A500031464846FFF732FF681CC5B2641C08A83F
:100A6000005D0028EDD100BF22B0BDE8F0075DF8C1
:100A700014FB704729B1064A92690243044B9A61FC
:100A800004E0034A92698243014B9A617047000077
:100A900000100240014988727047000000100240B7
:100AA00010B501460022002300204A11012A02D17C
:100AB000094C236806E0022A02D1074C236A01E0B0
:100AC000054C636A01F01F02012494401C400CB1E4
:100AD000012000E0002010BD00100240014600206F
:100AE000034A92680A400AB1012000E000207047E2
:100AF000001002401149096821F480310F4A116049
:100B00001146096821F480211160B0F5803F03D0BF
:100B1000B0F5802F0ED106E00849096841F4803114
:100B2000064A116007E00549096841F4A021034A1B
:100B3000116000E000BF00BF7047000000100240DD
:100B400010B50820FFF7CAFF48B10820FFF7A2FF41
:100B50003120FFF7A5FF10B1012000F01FF8102091
:100B6000FFF7BCFF48B11020FFF794FF3920FFF7D3
:100B700097FF10B1022000F017F810BD29B1064A06
:100B8000527A0243044B5A7204E0034A527A824377
:100B9000014B5A727047000000100240014908667C
:100BA000704700000000424201460020034A50689E
:100BB00020F003000843506070470000001002401E
:100BC000704710B500F002F810BD00000CB5002011
:100BD000019000903348006840F48030314908604B
:100BE00000BF3048006800F4003000900198401CBD
:100BF0000190009818B90198B0F5A06FF1D129487B
:100C0000006800F4003010B10120009001E00020E5
:100C100000900098012843D12348006840F010005C
:100C2000214908600846006820F003000860084673
:100C3000006840F0020008601A484068194948609E
:100C40000846406848600846406840F48060486054
:100C50000846406820F47C1048600846406840F42C
:100C6000E81048600846006840F08070086000BFE7
:100C70000C48006800F000700028F9D0094840686E
:100C800020F00300074948600846406840F0020031
:100C9000486000BF0348406800F00C000828F9D104
:100CA0000CBD00000010024000200240042808D1C2
:100CB0004FF0E021096941F004014FF0E022116199
:100CC00007E04FF0E021096921F004014FF0E02234
:100CD000116170477047000010B51348006840F07C
:100CE00001001149086008464068104908400E4953
:100CF0004860084600680E4908400B4908600846ED
:100D0000006820F4802008600846406820F4FE0057
:100D100048604FF41F008860FFF753FF4FF00060FA
:100D20000449086010BD0000001002400000FFF8F8
:100D3000FFFFF6FE08ED00E000BFFEE710B5044639
:100D4000FFF780FC7820FFF751FCFFF70FFC002035
:100D5000FFF74CFCFFF70AFC2046FFF747FCFFF7C4
:100D600005FCFFF78BFC10BD10B50446FFF76AFCCD
:100D70007820FFF73BFCFFF7F9FB4020FFF736FC3C
:100D8000FFF7F4FB2046FFF731FCFFF7EFFBFFF71F
:100D900075FC10BD6FF00B04FFF716FD0DA20621C8
:100DA0000020FFF7FDFD0DA203210220FFF7F8FD53
:100DB0000DA203210846FFF797FD0AE023460CA287
:100DC00000210120FFF7ECFD4FF47A70FFF7F0FAF5
:100DD000641CF3E74B494E4F0000000034313139B9
:100DE0003031303233310000C7E5B7E70000000092
:100DF0004E554D3D256420252020204020202020D8
:100E00002020000008B54FF40040ADF80000482055
:100E10008DF8030001208DF8020069460148FFF7B4
:100E200017FB08BD000C014008B54FF40040ADF8B9
:100E3000000014208DF8030001208DF8020069469F
:100E40000148FFF705FB08BD000C01406C0E0008CF
:100E50000000002078060000280100086012000849
:100E600078060020600600008401000891100F80C1
:100E700060F8074020180F08C80808281822011237
:100E8000FF17100C0340807F140106181009C4E3FB
:100E90001010F01F10F01009808282E2928A868082
:100EA0002740221508166129224116BAC3FC04FC0A
:100EB00014FE42BE27F212F202FE02140F040F1CAF
:100EC000FF100F083A4F2417B0A11060028C1E4487
:100ED0005454547F041344402C04047E692E151589
:100EE0001555952223C7E5480BFE021222C202C205
:100EF0003202FE97121F1A2088130C30150F304053
:100F0000F80313B7E772F852331C100C0203A11C4C
:100F100040C07803211C043F04032127708888FC0B
:100F2000083017182020FF211E37F008F0806018C5
:100F30001D310C031E10191133887090091E2123D6
:100F40002C192721102A9016513CE018046025071F
:100F50001820403D020418E0682C201807071740AD
:100F600080F08040404F0202010F01028839201BAF
:100F70000101111A01F0F95061191CA91F111A3051
:100F8000A4711BC038B83A605F194D1D10080810D5
:100F9000522F0F102020100FF15310F81E20203F69
:100FA0002020E01A08011AF0401D28242221441AAA
:100FB000300F29D23718202121221C2C80403031BB
:100FC0001008060524243F242427F8888888080868
:100FD0002F19202020110E60348888901B0F1111CA
:100FE0001A1F38193F4368183A3E9E1A702E29502E
:100FF0004B1C22501AF06029902E011222221190CF
:1010000011CBC0C0C272801925390F1C402010704E
:101010001E0102040810B03A4001213A02012119D0
:10102000152A403219251B0402724B704870195062
:101030002A375D1D30C828E8702808071827282F90
:101040002817122A3859280A203C23020227382060
:1010500008D0192F4B203FD01BC030A01B083830C0
:10106000191019784B08F8B039201B100F103E8862
:1010700088E8081010AC23201810113A0370393F8B
:1010800039402C221E024019A41809F808203F21DB
:10109000010121252A0852298129424149112EC0E6
:1010A0008080807F0E2FF888C0281808501C0126E9
:1010B000382F2940292F29801B20301012F81AF8C8
:1010C000142E203F013E014F4CF830C0601A2074AE
:1010D000123F4BE010B06B0F10B029D01AF030194E
:1010E00080220189203E282830504FC04C888870CB
:1010F000C0140C30204B7088C11738202121221CCD
:101100003A189F4A188239A049D0112A1F90121FFD
:10111000240878881BC838151C07380E601A089FE9
:101120001129241E033E013E0310481318688080D5
:1011300068180820302C03032C30200838C82F5999
:1011400050298F29102F203826212020681145FE94
:10115000020202257F404040740438C02B01060B78
:10116000191D42FE191D527F0512040202045A8005
:1011700001110B10120E1A411D19242412821B108A
:10118000F011413E3F112020112C49211A0E104B25
:1011900020110F2390F029F02A10B3395619101A94
:1011A00024012A170F1CE09090171A20D029D1494A
:1011B0007A214F6B949494936060190F4C203F21D7
:1011C000F354809898793059121AC02719D11930E0
:1011D00039311F203F2406293021AC1010F8306926
:1011E000D7294B2903190BC96079A019B02B201FEF
:1011F000DD390F8C80FF91E011191229E03B91FF3E
:101200002D3950194112208A01C02A33E03A19E0E1
:10121000394139525A104D190529606C103F204050
:10122000114E030C300C035D29033809010E300CFC
:10123000073806011D39A14E310E2E31202C29050B
:101240001D818678181F59D1214721302C22213049
:1012500084A24A04000900010203040607080900E9
:04000005080000ED02
:00000001FF
