:020000040800F2
:1000000070060020890100088D03000885030008A0
:1000100089030008430200087D0800080000000072
:10002000000000000000000000000000B90500080A
:10003000470200080000000049040008A506000867
:10004000A3010008A3010008A3010008A301000800
:10005000A301000839050008A3010008A301000856
:10006000A3010008A3010008A3010008A3010008E0
:10007000A3010008A3010008A3010008A3010008D0
:10008000A3010008A3010008A3010008A3010008C0
:10009000A3010008A3010008A3010008A3010008B0
:1000A000A3010008A3010008A3010008A3010008A0
:1000B00009070008A3010008A3010008A301000824
:1000C000A3010008A3010008A3010008A301000880
:1000D000A3010008A3010008A3010008A301000870
:1000E000A3010008A3010008A301000800F002F822
:1000F00000F03AF80AA090E8000C82448344AAF188
:100100000107DA4501D100F02FF8AFF2090EBAE885
:100110000F0013F0010F18BFFB1A43F0010318473B
:100120001008000030080000103A24BF78C878C1D9
:10013000FAD8520724BF30C830C144BF04680C60ED
:10014000704700000023002400250026103A28BF35
:1001500078C1FBD8520728BF30C148BF0B60704739
:100160001FB51FBD10B510BD00F031F81146FFF7E7
:10017000F7FF00F0A1FB00F04FF803B4FFF7F2FF28
:1001800003BC00F057F800000948804709480047C1
:10019000FEE7FEE7FEE7FEE7FEE7FEE7FEE7FEE737
:1001A000FEE7FEE704480549054A064B7047000094
:1001B000A9060008ED00000870000020700600206D
:1001C000700200207002002070477047704775462B
:1001D00000F02CF8AE4605006946534620F00700B3
:1001E000854618B020B5FFF7DDFFBDE820404FF091
:1001F00000064FF000074FF000084FF0000B21F011
:100200000701AC46ACE8C009ACE8C009ACE8C009DD
:10021000ACE8C0098D46704710B50446AFF30080C6
:100220002046BDE81040FFF7A8BF00000048704717
:100230001000002001491820ABBEFEE72600020096
:10024000704700BFFEE770472DE9F04102460025E8
:100250000026002000230024002791F803C00CF0A2
:100260000F0591F803C00CF0100CBCF1000F03D087
:1002700091F802C04CEA050591F800C0BCF1000FEE
:1002800031D0146800202BE04FF0010C0CFA00F381
:10029000B1F800C00CEA03069E4220D183004FF063
:1002A0000F0C0CFA03F7BC4305FA03FC4CEA0404F8
:1002B00091F803C0BCF1280F06D14FF0010C0CFAE5
:1002C00000FCC2F814C00AE091F803C0BCF1480F6A
:1002D00005D14FF0010C0CFA00FCC2F810C0401C14
:1002E0000828D1D31460B1F800C0BCF1FF0F34DD91
:1002F000546800202EE000F1080C4FF0010808FAC5
:100300000CF3B1F800C00CEA03069E4221D1830031
:100310004FF00F0C0CFA03F7BC4305FA03FC4CEA50
:10032000040491F803C0BCF1280F05D100F1080CBA
:1003300008FA0CF8C2F8148091F803C0BCF1480F19
:1003400007D100F1080C4FF0010808FA0CF8C2F8C8
:100350001080401C0828CED35460BDE8F081416174
:10036000704701617047000005480068012804D10A
:10037000002003490860012070470020FCE70000CE
:100380000000002000BFFEE700BFFEE710B58020A0
:1003900000F0A0F870B14FF4803000F0A7F8012110
:1003A000082000F0E7F80121102000F0E3F8802099
:1003B00000F06CF810BD10B54FF4A06000F03AF8F2
:1003C00010BD000070B5002100230F22C47804B3D3
:1003D000154C246804F4E064C4F5E064210AC1F11A
:1003E0000403CA40447804FA03F18478144021439A
:1003F00009010E4C0678A155047804F01F0501246C
:10040000AC4005786D11AD0005F1E025C5F800415F
:1004100009E0047804F01F050124AC40044D06787F
:10042000761145F8264070BD0CED00E000E400E0D8
:1004300080E100E002490143024A11607047000078
:100440000000FA050CED00E07047000029B1064AF3
:10045000D2690243044BDA6104E0034AD269824361
:10046000014BDA61704700000010024029B1064AD2
:1004700092690243044B9A6104E0034A9269824301
:10048000014B9A61704700000010024001498872D8
:10049000704700000010024010B501460022002302
:1004A00000204A11012A02D1094C236806E0022AE1
:1004B00002D1074C236A01E0054C636A01F01F0278
:1004C000012494401C400CB1012000E0002010BD2C
:1004D0000010024001460020034A92680A400AB117
:1004E000012000E000207047001002401149096817
:1004F00021F480310F4A11601146096821F48021EE
:100500001160B0F5803F03D0B0F5802F0ED106E02A
:100510000849096841F48031064A116007E005493D
:10052000096841F4A021034A116000E000BF00BF48
:10053000704700000010024010B50820FFF7CAFF06
:1005400048B10820FFF7A2FF3120FFF7A5FF10B147
:10055000012000F01FF81020FFF7BCFF48B1102069
:10056000FFF794FF3920FFF797FF10B1022000F04A
:1005700017F810BD29B1064A527A0243044B5A7249
:1005800004E0034A527A8243014B5A7270470000DA
:100590000010024001490866704700000000424216
:1005A00001460020034A506820F0030008435060D1
:1005B0007047000000100240704710B500F002F8CC
:1005C00010BD00000CB50020019000903348006879
:1005D00040F480303149086000BF3048006800F4C2
:1005E000003000900198401C0190009818B90198C3
:1005F000B0F5A06FF1D12948006800F4003010B1C7
:100600000120009001E0002000900098012843D1D3
:100610002348006840F0100021490860084600683F
:1006200020F0030008600846006840F002000860FF
:100630001A484068194948600846406848600846BA
:10064000406840F4806048600846406820F47C10B0
:1006500048600846406840F4E81048600846006872
:1006600040F08070086000BF0C48006800F0007027
:100670000028F9D00948406820F003000749486085
:100680000846406840F00200486000BF03484068E8
:1006900000F00C000828F9D10CBD00000010024049
:1006A000002002407047000010B51348006840F079
:1006B00001001149086008464068104908400E4989
:1006C0004860084600680E4908400B490860084623
:1006D000006820F4802008600846406820F4FE008E
:1006E00048604FF41F008860FFF767FF4FF000601D
:1006F0000449086010BD0000001002400000FFF82F
:10070000FFFFF6FE08ED00E010B50121880700F0BC
:100710001AF8012805D1034908600121800700F07B
:1007200003F810BD00000020CA430282704721B1C7
:10073000028842F00102028004E002884FF6FE7354
:100740001A400280704730B5024600200023002482
:10075000158A05EA0103958905EA010413B10CB174
:10076000012000E0002030BD1AB183890B43838152
:1007700002E083898B438381704700000022028856
:100780001D4B98420ED01D4B98420BD0B0F1804FBC
:1007900008D01B4B984205D01A4B984202D01A4BF6
:1007A000984204D14FF68F731A404B881A43174B67
:1007B000984207D0164B984204D04FF6FF431A4098
:1007C000CB881A4302808B8883850B8803850A4B6C
:1007D00098420BD0094B984208D00E4B984205D056
:1007E0000D4B984202D00D4B984201D10B7A0386F3
:1007F0000123838270470000002C01400034014037
:100800000004004000080040000C004000100040C0
:1008100000140040004001400044014000480140F5
:100820001FB5044601210846FFF710FE0020ADF871
:100830000600601E80B2ADF8080041F61F40ADF81A
:10084000040001A94FF08040FFF798FF01221146F4
:100850009007FFF789FF01208DF801008DF8020055
:100860001C208DF8000001208DF803006846FFF77A
:10087000A9FD01218807FFF75AFF1FBD00BFFEE752
:1008800010B510210148FFF76CFD10BD00080140B4
:1008900008B501210420FFF7E9FD10208DF80300C1
:1008A000ADF8000003208DF8020069460148FFF70B
:1008B000CBFC08BD00080140FFF77DFDFFF7E8FF16
:1008C00042F21070FFF7ACFF22E0FFF74DFD114937
:1008D00008600846006898B10F480068401C0E493F
:1008E00008600846006803280AD10C48006808B967
:1008F000012000E000200949086000200649086046
:100900000648006810B100F00BF801E0FFF7B8FFEF
:10091000DBE70000040000200C000020080000209D
:1009200010B510210148FFF71AFD10BD0008014065
:1009300050090008000000201000000028010008F5
:100940006009000810000020600600004401000853
:100950000000000000000000000000000000000097
:04000005080000ED02
:00000001FF
