:020000040800F2
:100000008806002089010008890400085F030008B1
:10001000850400084302000875090008000000007C
:10002000000000000000000000000000D5060008ED
:100030004702000800000000B3040008FD070008A4
:10004000A3010008A3010008A3010008A301000800
:10005000A301000855060008A3010008A301000839
:10006000A3010008A3010008A3010008A3010008E0
:10007000A3010008A3010008A3010008A3010008D0
:10008000A3010008A3010008A3010008A3010008C0
:10009000A3010008A3010008A3010008A3010008B0
:1000A000A3010008A3010008A3010008A3010008A0
:1000B000A3010008A3010008A3010008A301000890
:1000C000A3010008A3010008A3010008A301000880
:1000D000A3010008A3010008A3010008A301000870
:1000E000A3010008A3010008A301000800F002F822
:1000F00000F03AF80AA090E8000C82448344AAF188
:100100000107DA4501D100F02FF8AFF2090EBAE885
:100110000F0013F0010F18BFFB1A43F0010318473B
:100120007008000090080000103A24BF78C878C119
:10013000FAD8520724BF30C830C144BF04680C60ED
:10014000704700000023002400250026103A28BF35
:1001500078C1FBD8520728BF30C148BF0B60704739
:100160001FB51FBD10B510BD00F031F81146FFF7E7
:10017000F7FF00F001FC00F04FF803B4FFF7F2FFC7
:1001800003BC00F057F800000948804709480047C1
:10019000FEE7FEE7FEE7FEE7FEE7FEE7FEE7FEE737
:1001A000FEE7FEE704480549054A064B7047000094
:1001B00001080008ED0000088800002088060020E3
:1001C00088020020880200207047704770477546FB
:1001D00000F02CF8AE4605006946534620F00700B3
:1001E000854618B020B5FFF7DDFFBDE820404FF091
:1001F00000064FF000074FF000084FF0000B21F011
:100200000701AC46ACE8C009ACE8C009ACE8C009DD
:10021000ACE8C0098D46704710B50446AFF30080C6
:100220002046BDE81040FFF7A8BF00000048704717
:100230002800002001491820ABBEFEE7260002007E
:10024000704700BFFEE770472DE9F04102460025E8
:100250000026002000230024002791F803C00CF0A2
:100260000F0591F803C00CF0100CBCF1000F03D087
:1002700091F802C04CEA050591F800C0BCF1000FEE
:1002800031D0146800202BE04FF0010C0CFA00F381
:10029000B1F800C00CEA03069E4220D183004FF063
:1002A0000F0C0CFA03F7BC4305FA03FC4CEA0404F8
:1002B00091F803C0BCF1280F06D14FF0010C0CFAE5
:1002C00000FCC2F814C00AE091F803C0BCF1480F6A
:1002D00005D14FF0010C0CFA00FCC2F810C0401C14
:1002E0000828D1D31460B1F800C0BCF1FF0F34DD91
:1002F000546800202EE000F1080C4FF0010808FAC5
:100300000CF3B1F800C00CEA03069E4221D1830031
:100310004FF00F0C0CFA03F7BC4305FA03FC4CEA50
:10032000040491F803C0BCF1280F05D100F1080CBA
:1003300008FA0CF8C2F8148091F803C0BCF1480F19
:1003400007D100F1080C4FF0010808FA0CF8C2F8C8
:100350001080401C0828CED35460BDE8F08100BF57
:10036000FEE7000000B585B00121042000F0A2F8EE
:100370004FF40070ADF8100018208DF81300032022
:100380008DF8120004A91748FFF75EFF4FF4806054
:10039000ADF8100004208DF8130003208DF8120032
:1003A00004A91048FFF750FF0121880300F082F8EC
:1003B0004FF4165000900820ADF80A000020ADF868
:1003C0000400ADF80800ADF80600ADF80C00694671
:1003D000054800F05FFA0121034800F041FA05B03A
:1003E00000BD0000000801400038014070B504461F
:1003F0000D46012D09D101201449C870C42008718F
:100400000521124800F068F908E002200F49C87081
:10041000C520087105210D4800F05EF9200A0C493D
:10042000C8700C71084600784978084408498978F2
:1004300008440749C978084405490979084404492A
:1004400048710621024800F047F970BD23000020E2
:100450001900002010B504460949CC700846007800
:10046000497808440649897808440549C978084408
:10047000034908710521024800F02EF910BD000063
:100480001400002000BFFEE710B5802000F0B0F897
:1004900070B14FF4803000F0B7F80121082000F06F
:1004A000F7F80121102000F0F3F8802000F012F896
:1004B00010BD704729B1064A92690243044B9A6104
:1004C00004E0034A92698243014B9A61704700003D
:1004D000001002400149887270470000001002407D
:1004E00030B500210022002400232D4D6D6805F059
:1004F0000C0121B1042905D0082923D105E0294D9B
:10050000056022E0274D05601FE0254D6D6805F46C
:100510007012234D6D6805F48034022505EB92427C
:100520001CB9214D554305600BE01D4D6D6805F468
:1005300000351DB11C4D5543056002E0194D554372
:10054000056002E0174D056000BF00BF144D6D68E7
:1005500005F0F0010909154D6B5C0568DD4045604B
:100560000F4D6D6805F4E061090A104D6B5C45683C
:10057000DD4085600A4D6D6805F46051C90A0B4D78
:100580006B5C4568DD40C560054D6D6805F4404114
:10059000890B074D6B5CC568B5FBF3F5056130BD94
:1005A0000010024000127A0000093D000000002007
:1005B0001000002010B501460022002300204A113F
:1005C000012A02D1094C236806E0022A02D1074C15
:1005D000236A01E0054C636A01F01F020124944084
:1005E0001C400CB1012000E0002010BD00100240B2
:1005F00001460020034A92680A400AB1012000E047
:1006000000207047001002401149096821F4803130
:100610000F4A11601146096821F480211160B0F57C
:10062000803F03D0B0F5802F0ED106E0084909685D
:1006300041F48031064A116007E00549096841F438
:10064000A021034A116000E000BF00BF7047000016
:100650000010024010B50820FFF7CAFF48B108207B
:10066000FFF738FF3120FFF7A5FF10B1012000F0A0
:100670001FF81020FFF7BCFF48B11020FFF72AFF3A
:100680003920FFF797FF10B1022000F017F810BDD6
:1006900029B1064A527A0243044B5A7204E0034AD3
:1006A000527A8243014B5A72704700000010024098
:1006B00001490866704700000000424201460020E0
:1006C000034A506820F00300084350607047000060
:1006D000001002407047000070B505460E46002429
:1006E00012E000BF80210A4800F0C6F80028F9D0C7
:1006F000295D074800F03AF900BF4021044800F0A6
:10070000BBF80028F9D0641CB442EADB70BD0000DD
:100710000038014010B500F001F810BD0CB5002004
:10072000019000903348006840F4803031490860FF
:1007300000BF3048006800F4003000900198401C71
:100740000190009818B90198B0F5A06FF1D129482F
:10075000006800F4003010B10120009001E000209A
:1007600000900098012843D12348006840F0100011
:10077000214908600846006820F003000860084628
:10078000006840F0020008601A4840681949486053
:100790000846406848600846406840F48060486009
:1007A0000846406820F47C1048600846406840F4E1
:1007B000E81048600846006840F08070086000BF9C
:1007C0000C48006800F000700028F9D00948406823
:1007D00020F00300074948600846406840F00200E6
:1007E000486000BF0348406800F00C000828F9D1B9
:1007F0000CBD0000001002400020024070470000C5
:1008000010B51348006840F001001149086008461F
:100810004068104908400E494860084600680E4983
:1008200008400B4908600846006820F480200860F2
:100830000846406820F4FE0048604FF41F008860BE
:10084000FFF768FF4FF000600449086010BD00002A
:10085000001002400000FFF8FFFFF6FE08ED00E088
:1008600021B1828942F40052828104E082894DF6EE
:10087000FF731A408281704702460020B1F5007F65
:1008800000D100BF13880B400BB1012000E0002015
:10089000704700002DE9F04786B005460E4600245B
:1008A000A24600BFA1460027B08900B100BF2F4675
:1008B0002C8A4CF6FF700440F08804432C82AC89EB
:1008C0004EF6F3100440B08831890843718908431B
:1008D0000443AC81AC8A4FF6FF400440B089044326
:1008E000AC8201A8FFF7FCFD1F48874202D1DDF86A
:1008F00010A001E0DDF80CA0A88900F4004040B190
:100900000AEBCA0000EB0A1031684900B0FBF1F8AD
:1009100007E00AEBCA0000EB0A1031688900B0FB5F
:10092000F1F86420B8FBF0F004012009642101FB18
:100930001089A88900F4004040B1322000EBC900C2
:10094000B0FBF1F000F00700044308E0322000EBB8
:1009500009106421B0FBF1F000F00F0004432C817A
:1009600006B0BDE8F087000000380140C1F308027E
:100970008280704700BFFEE7FFF7F4FC0A20FFF714
:1009800069FD01210846FFF731FD00BFFEE70000C9
:10099000B00900080000002028000000280100081D
:1009A000D809000828000020600600004401000863
:1009B0000000000001020304010203040607080905
:1009C00002040608AA130114D2AA07020001B4AA5D
:0809D0000400AEAA180102C5E3
:04000005080000ED02
:00000001FF
