:020000040800F2
:10000000600600206D0100084B0300084303000850
:100010004703000827020008490800080000000004
:10002000000000000000000000000000790500084A
:100030002B02000800000000750300086506000898
:100040008701000887010008870100088701000870
:1000500087010008F90400088701000887010008EB
:100060008701000887010008870100088701000850
:100070008701000887010008870100088701000840
:100080008701000887010008870100088701000830
:100090008701000887010008870100088701000820
:1000A0008701000887010008870100088701000810
:1000B0008701000887010008870100088701000800
:1000C00087010008870100088701000887010008F0
:1000D00087010008870100088701000887010008E0
:1000E00087010008870100088701000800F002F876
:1000F00000F02CF80AA090E8000C82448344AAF196
:100100000107DA4501D100F021F8AFF2090EBAE893
:100110000F0013F0010F18BFFB1A43F0010318473B
:1001200034070000440700000023002400250026B7
:10013000103A28BF78C1FBD8520728BF30C148BF4A
:100140000B6070471FB51FBD10B510BD00F031F832
:100150001146FFF7F7FF00F079FB00F04FF803B40A
:10016000FFF7F2FF03BC00F057F800000948804792
:1001700009480047FEE7FEE7FEE7FEE7FEE7FEE789
:10018000FEE7FEE7FEE7FEE704480549054A064BA1
:100190007047000069060008ED00000860000020BC
:1001A0006006002060020020600200207047704757
:1001B0007047754600F02CF8AE4605006946534678
:1001C00020F00700854618B020B5FFF7DDFFBDE839
:1001D00020404FF000064FF000074FF000084FF0AE
:1001E000000B21F00701AC46ACE8C009ACE8C0093F
:1001F000ACE8C009ACE8C0098D46704710B50446AC
:10020000AFF300802046BDE81040FFF7A8BF000014
:10021000004870470000002001491820ABBEFEE7EF
:1002200026000200704700BFFEE770472DE9F0414D
:10023000024600250026002000230024002791F814
:1002400003C00CF00F0591F803C00CF0100CBCF1CA
:10025000000F03D091F802C04CEA050591F800C0E8
:10026000BCF1000F31D0146800202BE04FF0010CDE
:100270000CFA00F3B1F800C00CEA03069E4220D14C
:1002800083004FF00F0C0CFA03F7BC4305FA03FC94
:100290004CEA040491F803C0BCF1280F06D14FF0DA
:1002A000010C0CFA00FCC2F814C00AE091F803C07B
:1002B000BCF1480F05D14FF0010C0CFA00FCC2F85C
:1002C00010C0401C0828D1D31460B1F800C0BCF1A4
:1002D000FF0F34DD546800202EE000F1080C4FF0D1
:1002E000010808FA0CF3B1F800C00CEA03069E42BC
:1002F00021D183004FF00F0C0CFA03F7BC4305FA31
:1003000003FC4CEA040491F803C0BCF1280F05D1AA
:1003100000F1080C08FA0CF8C2F8148091F803C038
:10032000BCF1480F07D100F1080C4FF0010808FAA2
:100330000CF8C2F81080401C0828CED35460BDE8E9
:10034000F08100BFFEE700BFFEE710B5802000F09F
:10035000A1F870B14FF4803000F0A8F80121082016
:1003600000F0E8F80121102000F0E4F8802000F00F
:100370006DF810BD7047000000B589B00121084636
:1003800000F044F80121042000F050F80020ADF8FE
:100390001A0044F61F60ADF81C004720ADF81800A5
:1003A0000020ADF81E0006A94FF0804000F0FAF9D9
:1003B00018208DF817000120ADF8140003208DF8E7
:1003C000160005A91048FFF731FF6020ADF80400C2
:1003D0000020ADF80C000120ADF806004FF4FA70D3
:1003E000ADF80A0001A9000700F086F90821C80647
:1003F00000F0CEF90121880700F066F90121880795
:1004000000F06EF909B000BD0008014029B1064AAC
:10041000D2690243044BDA6104E0034AD2698243A1
:10042000014BDA61704700000010024029B1064A12
:1004300092690243044B9A6104E0034A9269824341
:10044000014B9A6170470000001002400149887218
:10045000704700000010024010B501460022002342
:1004600000204A11012A02D1094C236806E0022A21
:1004700002D1074C236A01E0054C636A01F01F02B8
:10048000012494401C400CB1012000E0002010BD6C
:100490000010024001460020034A92680A400AB157
:1004A000012000E000207047001002401149096857
:1004B00021F480310F4A11601146096821F480212E
:1004C0001160B0F5803F03D0B0F5802F0ED106E06B
:1004D0000849096841F48031064A116007E005497E
:1004E000096841F4A021034A116000E000BF00BF89
:1004F000704700000010024010B50820FFF7CAFF47
:1005000048B10820FFF7A2FF3120FFF7A5FF10B187
:10051000012000F01FF81020FFF7BCFF48B11020A9
:10052000FFF794FF3920FFF797FF10B1022000F08A
:1005300017F810BD29B1064A527A0243044B5A7289
:1005400004E0034A527A8243014B5A72704700001A
:100550000010024001490866704700000000424256
:1005600001460020034A506820F003000843506011
:100570007047000000100240704710B500F002F80C
:1005800010BD00000CB500200190009033480068B9
:1005900040F480303149086000BF3048006800F402
:1005A000003000900198401C0190009818B9019803
:1005B000B0F5A06FF1D12948006800F4003010B107
:1005C0000120009001E0002000900098012843D114
:1005D0002348006840F01000214908600846006880
:1005E00020F0030008600846006840F00200086040
:1005F0001A484068194948600846406848600846FB
:10060000406840F4806048600846406820F47C10F0
:1006100048600846406840F4E810486008460068B2
:1006200040F08070086000BF0C48006800F0007067
:100630000028F9D00948406820F0030007494860C5
:100640000846406840F00200486000BF0348406828
:1006500000F00C000828F9D10CBD00000010024089
:10066000002002407047000010B51348006840F0B9
:1006700001001149086008464068104908400E49C9
:100680004860084600680E4908400B490860084663
:10069000006820F4802008600846406820F4FE00CE
:1006A00048604FF41F008860FFF767FF4FF000605D
:1006B0000449086010BD0000001002400000FFF86F
:1006C000FFFFF6FE08ED00E021B1028842F0800253
:1006D000028004E002884FF67F731A400280704760
:1006E00021B1028842F00102028004E002884FF644
:1006F000FE731A400280704770B500240022002368
:10070000058C4FF6FE7635400584028C8388048B79
:100710004FF68F752C40B51E2C400D882C43751E4E
:100720002A400D892A434D882A43144DA8420BD0F4
:10073000134DA84208D0134DA84205D0124DA8422F
:1007400002D0124DA84213D14FF6F7752A404D89B9
:100750002A434FF6FB752A408D882A434FF6FF65E2
:100760002B404FF6FF552B408D892B43CD892B43D2
:1007700083800483CD888586028470BD002C01406F
:100780000034014000400140004401400048014065
:100790000A460021018B4FF6F7731940114301837C
:1007A00070470000002202881D4B98420ED01D4B5E
:1007B00098420BD0B0F1804F08D01B4B984205D027
:1007C0001A4B984202D01A4B984204D14FF68F73BD
:1007D0001A404B881A43174B984207D0164B984241
:1007E00004D04FF6FF431A40CB881A4302808B880F
:1007F00083850B8803850A4B98420BD0094B98429E
:1008000008D00E4B984205D00D4B984202D00D4BAC
:10081000984201D10B7A038601238382704700003E
:10082000002C01400034014000040040000800405A
:10083000000C004000100040001400400040014047
:10084000004401400048014000BFFEE7FFF794FD6F
:1008500000BFFEE7640800080000002060060000FA
:040860002801000863
:04000005080000ED02
:00000001FF
