:020000040800F2
:10000000D80C0020C9010008E50800083B070008DB
:10001000E108000827030008550E00080000000052
:10002000000000000000000000000000DD0C0008DF
:1000300045050008000000008F0B0008F10D0008C6
:10004000E3010008E3010008E3010008E301000800
:10005000E30100085D0C0008E3010008E30100086B
:10006000E3010008E3010008E3010008E3010008E0
:10007000E3010008E3010008E3010008E3010008D0
:10008000E3010008E3010008E3010008E3010008C0
:10009000E3010008E3010008E3010008E3010008B0
:1000A000E3010008E3010008E3010008E3010008A0
:1000B000E3010008E3010008E3010008E301000890
:1000C000E3010008E3010008E3010008E301000880
:1000D000E3010008E3010008E3010008E301000870
:1000E000E3010008E3010008E301000800F002F862
:1000F00000F05AF80AA090E8000C82448344AAF168
:100100000107DA4501D100F04FF8AFF2090EBAE865
:100110000F0013F0010F18BFFB1A43F0010318473B
:1001200084110000A41100000A444FF0000C10F8E4
:10013000013B13F0070408BF10F8014B1D1108BF65
:1001400010F8015B641E05D010F8016B641E01F805
:10015000016BF9D113F0080F1EBF10F8014BAD1C55
:100160000C1B09D16D1E58BF01F801CBFAD505E073
:1001700014F8016B01F8016B6D1EF9D59142D6D3CD
:10018000704700000023002400250026103A28BFF5
:1001900078C1FBD8520728BF30C148BF0B607047F9
:1001A0001FB51FBD10B510BD00F083F81146FFF755
:1001B000F7FF00F07DFE00F0A1F803B4FFF7F2FFB7
:1001C00003BC00F0A9F8000009488047094800472F
:1001D000FEE7FEE7FEE7FEE7FEE7FEE7FEE7FEE7F7
:1001E000FEE7FEE704480549054A064B7047000054
:1001F000F50D0008ED000008D8060020D80C0020FE
:10020000D8080020D808002010B5431C02E010F8E0
:10021000011B71B18107FAD14FF0013202C88C1A6B
:100220008C4314EAC211F9D0C01A0A0603D0C01ECA
:1002300010BDC01A10BD0A0401D0801E10BD0902F5
:10024000FCD0401E10BD421E12F8013F002BFBD116
:1002500011F8013B002B02F8013BF9D170474FF038
:10026000000200B5134694469646203922BFA0E806
:100270000C50A0E80C50B1F12001BFF4F7AF090712
:1002800028BFA0E80C5048BF0CC05DF804EB890003
:1002900028BF40F8042B08BF704748BF20F8022B46
:1002A00011F0804F18BF00F8012B7047704770475E
:1002B0007047754600F02CF8AE4605006946534677
:1002C00020F00700854618B020B5FFF78BFFBDE88A
:1002D00020404FF000064FF000074FF000084FF0AD
:1002E000000B21F00701AC46ACE8C009ACE8C0093E
:1002F000ACE8C009ACE8C0098D46704710B50446AB
:10030000AFF300802046BDE81040FFF756BF000065
:10031000004870477806002001491820ABBEFEE770
:1003200026000200704700BFFEE700002DE9F05FE5
:1003300000F0BCF800F078F8CC2000F0C5F8BE2042
:1003400000F0C2F800F030F8814600F02DF8824647
:100350004FEA0A244C44204600F029FE07460022BA
:10036000044B00F03BFE054600F0F0FD8346584686
:10037000BDE8F09F0000194008B50121042000F0FD
:1003800007FC0120ADF8000010208DF803000320C9
:100390008DF802006946034800F044F900F0D4F8F3
:1003A00008BD00000008014070B50024002530E0C1
:1003B0001A48006820F00F001849086008460068D5
:1003C00040F003000860002015490860022000F09A
:1003D00003F901201349C1F88001032000F0FCF863
:1003E00064100E48006820F00F000C4908600846B1
:1003F000006840F00800086009488038006808B1CB
:1004000044F080043C2000F0E7F8022000F0E4F81B
:100410006D1C082DCCDB204670BD0000000801409B
:10042000800121420000214210B501241C480068CF
:1004300020F00F001A4908600846006840F00300E9
:1004400008600020174908604FF4FA7000F0C4F803
:1004500001201549C1F88001142000F0BDF82820C2
:1004600000F0BAF80E48006820F00F000C49086050
:100470000846006840F008000860282000F0ACF84A
:1004800008488038006800B100E000248C2000F0AB
:10049000A3F84FF4967000F09FF8204610BD0000BE
:1004A00000080140800121420000214210B5FFF701
:1004B000BBFFCC2000F008F8442000F005F86420D1
:1004C00000F08AF810BD000070B504461A480068B4
:1004D00020F00F00184908600846006840F003004B
:1004E0000860002525E0002014490860052000F080
:1004F00073F801201249C1F880010A2000F06CF85D
:1005000004F0010030B101200C490860322000F0F5
:1005100063F805E0002009490860322000F05CF82B
:10052000012006490860032000F056F86410681C9A
:10053000C5B2082DD7DB70BD000801408001214203
:10054000000021427047000010B56FF0040000F079
:100550003BFC08480068C0080749B0FBF1F00749B8
:100560000860084600684FF47A71484304490860FF
:1005700010BD00006406002040420F000000002073
:1005800004000020B0F5E96F00DD7047114A1268E1
:1005900042434FF0E0235A6100229A611A461269E1
:1005A00042F001021A6100BF4FF0E022116901F030
:1005B00001021AB101F48032002AF5D04FF0E02296
:1005C000126922F001024FF0E0231A6100229A61C1
:1005D00000BFDAE7040000200146114A12684A43CE
:1005E0004FF0E0235A6100229A611A46126942F0E4
:1005F00001021A6100BF4FF0E022106900F0010211
:100600001AB100F48032002AF5D04FF0E0221269CE
:1006100022F001024FF0E0231A6100229A61704734
:10062000000000202DE9F0410246002500260020B0
:1006300000230024002791F803C00CF00F0591F867
:1006400003C00CF0100CBCF1000F03D091F802C0F5
:100650004CEA050591F800C0BCF1000F31D01468D8
:1006600000202BE04FF0010C0CFA00F3B1F800C0B1
:100670000CEA03069E4220D183004FF00F0C0CFAC7
:1006800003F7BC4305FA03FC4CEA040491F803C0E9
:10069000BCF1280F06D14FF0010C0CFA00FCC2F897
:1006A00014C00AE091F803C0BCF1480F05D14FF027
:1006B000010C0CFA00FCC2F810C0401C0828D1D371
:1006C0001460B1F800C0BCF1FF0F34DD54680020A5
:1006D0002EE000F1080C4FF0010808FA0CF3B1F815
:1006E00000C00CEA03069E4221D183004FF00F0C9C
:1006F0000CFA03F7BC4305FA03FC4CEA040491F836
:1007000003C0BCF1280F05D100F1080C08FA0CF861
:10071000C2F8148091F803C0BCF1480F07D100F172
:10072000080C4FF0010808FA0CF8C2F81080401CC1
:100730000828CED35460BDE8F08100BFFEE700007A
:1007400010B500F0DFFB00200C49086000F01AF83B
:1007500001200B49C1F8B8010220FFF73DFF07480F
:100760007C38006808B1012400E000240220FFF773
:1007700033FF002001490860204610BDB8812142A6
:100780000080214210B50520FFF726FF10BD0000B4
:1007900008B50121082000F0FBF94FF44040ADF806
:1007A000000014208DF8030001208DF80200694636
:1007B0000248FFF737FFFFF7C7FE08BD000C0140F6
:1007C00070B5044600F0B0FB00251BE00020114985
:1007D0000860FFF7D7FF04F0800020B101200D4929
:1007E000091D086003E000200A49091D0860FFF7A1
:1007F000C9FF012007490860FFF7C4FF6006040E27
:10080000681CC5B2082DE1DB002002490860FFF733
:10081000B9FF70BDB881214210B500F085FB012001
:10082000094908600949C1F8BC01FFF7ABFF002086
:100830000549091D0860FFF7A5FF00200349C1F81D
:10084000B801FFF79FFF10BDB8812142008021420F
:1008500010B500F069FB0120074908600020074936
:10086000C1F8BC01FFF78EFF01200349091D086094
:10087000FFF788FF10BD0000B881214200802142AF
:1008800070B530B930250D7000264D1C29462E70EC
:1008900070BD0A460446002800DA40420AE00A25F4
:1008A00090FBF5F605FB1605303501F8015B0A25CE
:1008B00090FBF5F00028F2DC002C02DA2D2501F87F
:1008C000015B00250D704B1E06E015781E78167032
:1008D0001D70521C5B1E00BF9A42F6D300BFD7E7C3
:1008E00000BFFEE710B5802000F086F970B14FF42C
:1008F000803000F08DF90121082000F0CDF90121B0
:10090000102000F0C9F9802000F052F910BD70B538
:10091000002414E044F0B00000F09EFA002000F043
:100920009BFA102000F098FA002504E0002000F067
:10093000A9FA681CC5B2802DF8DB601CC4B2082C73
:10094000E8DB70BD2DE9F04706460C461746984691
:10095000DDF8209000251DE045F0B0013144C8B21B
:1009600000F07AFA102101EB141000F075FA04F08F
:100970000F0000F071FA4FF0000A07E019F8010BC0
:1009800000F080FA0AF1010000F0FF0AC245F5DB31
:10099000681CC5B2BD42DFDBBDE8F08710B5FFF7CC
:1009A000F7FEC820FFF7EEFDA82000F055FA3F2023
:1009B00000F052FADA2000F04FFA122000F04CFA60
:1009C000D32000F049FA002000F046FA402000F061
:1009D00043FAA12000F040FA812000F03DFA7F2088
:1009E00000F03AFAA42000F037FAA62000F034FA1A
:1009F000D52000F031FAF02000F02EFA8D2000F022
:100A00002BFA142000F028FAAE2000F025FA20205E
:100A100000F022FA022000F01FFAC82000F01CFAB1
:100A2000B02000F019FA002000F016FA102000F0B3
:100A300013FA402000F010FAD92000F00DFA22201D
:100A400000F00AFADB2000F007FA202000F004FA98
:100A5000AF2000F001FA00F005F8FFF758FF00F0B2
:100A60000CF810BD10B58D2000F0F6F9102000F044
:100A7000F3F9AE2000F0F0F910BD10B58D2000F0B4
:100A8000EBF9142000F0E8F9AF2000F0E5F910BD13
:100A9000F8B505460E461446A4F12000C4B2064837
:100AA00000EB0410F206110E6A060090100E0823E7
:100AB0000222FFF747FFF8BDB20000200FB42DE976
:100AC000F047A2B081460F462C98FFF79DFB824667
:100AD00000242DA82190642108A8FFF7C0FB00BFC7
:100AE00035E02C98005D252810D1601C2C99085CFD
:100AF00064280BD1219901C921916946FFF7C0FEF5
:100B0000694608A8FFF79FFB641C1FE02C98005D56
:100B100025280CD1601C2C99085C732807D12198DA
:100B200002C8219008A8FFF78EFB641C0EE008A8FD
:100B3000FFF76AFB80462C98005D08A901F80800C1
:100B4000002108AA08F10100115400BF641C54459B
:100B5000C7DB002021900025002600240DE0E819C5
:100B6000C6B2102E00DB0CE008A8025D31464846F4
:100B7000FFF78EFF681CC5B2641C08A8005D002842
:100B8000EDD100BF22B0BDE8F0075DF814FB70475F
:100B900029B1064A92690243044B9A6104E0034A70
:100BA00092698243014B9A61704700000010024035
:100BB00001498872704700000010024010B50146DC
:100BC0000022002300204A11012A02D1094C236887
:100BD00006E0022A02D1074C236A01E0054C636A51
:100BE00001F01F02012494401C400CB1012000E0E0
:100BF000002010BD0010024001460020034A926808
:100C00000A400AB1012000E00020704700100240B5
:100C10001149096821F480310F4A116011460968B1
:100C200021F480211160B0F5803F03D0B0F5802F12
:100C30000ED106E00849096841F48031064A116086
:100C400007E00549096841F4A021034A116000E06A
:100C500000BF00BF704700000010024010B5082020
:100C6000FFF7CAFF48B10820FFF7A2FF3120FFF7C6
:100C7000A5FF10B1012000F01FF81020FFF7BCFF06
:100C800048B11020FFF794FF3920FFF797FF10B10C
:100C9000022000F017F810BD29B1064A527A02432B
:100CA000044B5A7204E0034A527A8243014B5A724F
:100CB00070470000001002400149086670470000BC
:100CC0000000424201460020034A506820F0030021
:100CD000084350607047000000100240704710B594
:100CE00000F002F810BD00000CB50020019000904B
:100CF0003348006840F480303149086000BF304814
:100D0000006800F4003000900198401C01900098A9
:100D100018B90198B0F5A06FF1D12948006800F426
:100D2000003010B10120009001E0002000900098F8
:100D3000012843D12348006840F010002149086091
:100D40000846006820F0030008600846006840F08C
:100D5000020008601A48406819494860084640681F
:100D600048600846406840F4806048600846406833
:100D700020F47C1048600846406840F4E810486061
:100D80000846006840F08070086000BF0C480068AA
:100D900000F000700028F9D00948406820F00300F6
:100DA000074948600846406840F00200486000BFBC
:100DB0000348406800F00C000828F9D10CBD000081
:100DC0000010024000200240042808D14FF0E0212A
:100DD000096941F004014FF0E022116107E04FF092
:100DE000E021096921F004014FF0E0221161704710
:100DF0007047000010B51348006840F00100114929
:100E0000086008464068104908400E494860084696
:100E100000680E4908400B4908600846006820F445
:100E2000802008600846406820F4FE0048604FF4C7
:100E30001F008860FFF753FF4FF00060044908600F
:100E400010BD0000001002400000FFF8FFFFF6FE9A
:100E500008ED00E000BFFEE710B50446FFF7DCFC3C
:100E60007820FFF7ADFCFFF76BFC0020FFF7A8FC34
:100E7000FFF766FC2046FFF7A3FCFFF761FCFFF7D6
:100E8000E7FC10BD10B50446FFF7C6FC7820FFF75D
:100E900097FCFFF755FC4020FFF792FCFFF750FC52
:100EA0002046FFF78DFCFFF74BFCFFF7D1FC10BD90
:100EB00008B5FFF773FDFFF75FFA00240025002651
:100EC00017E0FFF733FA0446204600F085F9642165
:100ED00090FBF1F5204600F07FF9642190FBF1F2E0
:100EE00001FB12062B4603A2002108460096FFF7DD
:100EF000E5FDE6E774656D703A25642E25642020D3
:100F00002020200008B54FF40040ADF80000482034
:100F10008DF8030001208DF8020069460148FFF7B3
:100F200081FB08BD000C014008B54FF40040ADF84E
:100F3000000014208DF8030001208DF8020069469E
:100F40000148FFF76FFB08BD000C014021F0004293
:100F5000A2F16052B2F5801F01F0004328BFD2F128
:100F60007F6C0BD95FEA001C43EAC20242EB50706F
:100F700018BF704728BF20F001007047B2F5801FEE
:100F8000BCBF184670474FEA410C1CF5001F02D247
:100F9000084600F082B970B500F0CAF80000008978
:100FA000FFF7F6BF4FF00040A0F58000704710F04B
:100FB000004248BF4042B0FA80F310FA03F10AD071
:100FC000C3F11D0303F580634FEA415002EB035266
:100FD00002EBD12170474FF000007047DFF848C1A5
:100FE00070B51CEA111E1EBF1CEA13159EEA0C0FF9
:100FF00095EA0C0F00F06F8081EA030423EA4C139A
:101000004EEAD47E21EA4C1141F4801143F480135E
:10101000AE44A1FB024CA0FB0365AEF17F7E361906
:1010200055EB0C05A1FB034C4CF10003A0FB021C8B
:1010300016EB0C06654153F10003094218BF46F058
:10104000010613F4007F0BD14FEA03314FEA05305C
:10105000340341EA155140EA16506FF003020AE0EA
:101060004FEAC3214FEAC520F40241EA555140EA54
:1010700056506FF0020202EB2E4201EB025585EA58
:10108000CE710AD05FEA440C18BF24F0004450F13E
:10109000000041F1000120EAD47040F2FE7C62457C
:1010A00000D270BDA84214BF4FF080444FF04044BE
:1010B000002E08BF0024BEF1806FA8BFA1F1C0417F
:1010C000BDE8704080F282804FF0000001F1C04125
:1010D00001F0004170479EEA0C0F0CEA131518BF8F
:1010E00095EA0C0F06D04FF0000081EA030E0EF0D7
:1010F000004170BD00F01CF88900013E00F007B807
:1011000000F009B84FEA430C5FEA5C5C08D081EA62
:10111000030100F05BB84FEA410C5FEA5C5CF6D17A
:101120004FF00000014970470000FF070000F87F02
:101130000EF1020E2EF0030E5EF8046B364205D45B
:10114000012A43EB030515F5001F12D8012841EBD6
:10115000010C1CF5001F0CD80ED14FEAD17C15F5FF
:10116000001F0CEB4C0C0CF1020C08BF4CEBD37CB9
:1011700004E04FF0080C01E04FEAD37C0CEB4C0587
:1011800026FA05F606F00706B6F1040C06D20EEBB9
:10119000860CBDE870404CF0010C6047DFE80CF0B5
:1011A000090B02024FF000414FF00000A1F50021B1
:1011B00070BD19461046012851EB010418BFD4F543
:1011C000001484BF002001F0004170BD0808A0F5A4
:1011D00000114FEA3101704741000B0ED3F19E021E
:1011E00008D950F400034FEA032323FA02F048BF62
:1011F0004042704710B500F00AF800BF49922480C1
:10120000002070476FF0004282EA200070470EF124
:10121000020E2EF0030E5EF8044B244204D44FEA73
:101220004102B2F17F4F11D84FEA4003B3F17F4F33
:101230000CD80ED14FEAD07CB2F17F4F0CEB4C0CA6
:101240000CF1020C08BF4CEBD17C04E04FF0080C11
:1012500001E04FEAD17C0CEB4C0324FA03F404F0D8
:101260000704B4F1040C06D20EEB840CBDE8104068
:101270004CF0010C6047DFE80CF0070802024FF069
:101280000040A0F5800010BD0846420018BFD2F112
:10129000807288BF00F0004010BDFF2141EAD050AD
:1012A000C0057047C4120008000000207806000046
:1012B00028010008B8160008780600206006000023
:1012C0008401000891100F8060F8074020180F0873
:1012D000C808082818220112FF17100C0340807F4D
:1012E000140106181009C4E31010F01F10F01009C3
:1012F000808282E2928A8680274022150816612920
:10130000224116BAC3FC04FC14FE42BE27F212F2BC
:1013100002FE02140F040F1CFF100F083A4F24178F
:10132000B0A11060028C1E445454547F04134440F6
:101330002C04047E692E15151555952223C7E54802
:101340000BFE021222C202C23202FE97121F1A20A4
:1013500088130C30150F3040F80313B7E772F852BA
:10136000331C100C0203A11C40C07803211C043F55
:1013700004032127708888FC083017182020FF21DB
:101380001E37F008F08060181D310C031E10191173
:1013900033887090091E21232C192721102A9016BA
:1013A000513CE018046025071820403D020418E075
:1013B000682C20180707174080F08040404F020239
:1013C000010F01028839201B0101111A01F0F950A7
:1013D00061191CA91F111A30A4711BC038B83A60DA
:1013E0005F194D1D10080810522F0F102020100FEC
:1013F000F15310F81E20203F2020E01A08011AF0B7
:10140000401D28242221441A300F29D237182021C8
:1014100021221C2C804030311008060524243F2452
:101420002427F888888808082F19202020110E60AA
:10143000348888901B0F11111A1F38193F43681800
:101440003A3E9E1A702E29504B1C22501AF06029E9
:10145000902E01122222119011CBC0C0C2728019AD
:1014600025390F1C402010701E0102040810B03AEC
:101470004001213A02012119152A403219251B0485
:1014800002724B70487019502A375D1D30C828E829
:10149000702808071827282F2817122A3859280AD1
:1014A000203C23020227382008D0192F4B203FD0A0
:1014B0001BC030A01B083830191019784B08F8B041
:1014C00039201B100F103E8888E8081010AC23202C
:1014D0001810113A0370393F39402C221E0240196E
:1014E000A41809F808203F21010121252A085229C2
:1014F0008129424149112EC08080807F0E2FF888BB
:10150000C0281808501C0126382F2940292F29806F
:101510001B20301012F81AF8142E203F013E014F04
:101520004CF830C0601A2074123F4BE010B06B0FC3
:1015300010B029D01AF0301980220189203E2828C5
:1015400030504FC04C888870C0140C30204B7088CD
:10155000C11738202121221C3A189F4A188239A02D
:1015600049D0112A1F90121F240878881BC83815EB
:101570001C07380E601A089F1129241E033E013EE5
:10158000031048131868808068180820302C030363
:101590002C30200838C82F5950298F29102F203877
:1015A00026212020681145FE020202257F4040408E
:1015B000740438C02B01060B191D42FE191D527F01
:1015C0000512040202045A8001110B10120E1A4176
:1015D0001D19242412821B10F011413E3F112020BE
:1015E000112C49211A0E104B20110F2390F029F0D5
:1015F0002A10B3395619101A24012A170F1CE0902B
:1016000090171A20D029D1497A214F6B9494949342
:101610006060190F4C203F21F3548098987930591D
:10162000121AC02719D1193039311F203F24062939
:101630003021AC1010F83069D7294B2903190BC998
:101640006079A019B02B201FDD390F8C80FF91E04D
:1016500011191229E03B91FF2D3950194112208AAE
:1016600001C02A33E03A19E0394139525A104D1974
:101670000529606C103F2040114E030C300C035DB7
:1016800029033809010E300C073806011D39A14E17
:10169000310E2E31202C29051D818678181F59D135
:1016A000214721302C22213084A24A040009000164
:0816B00002030406070809000B
:04000005080000ED02
:00000001FF
