:020000040800F2
:10000000680600208901000865050008A1040008B1
:10001000610500083B020008C1080008000000005C
:100020000000000000000000000000007107000850
:100030003F02000800000000210600085D080008DB
:10004000A3010008A3010008A3010008A301000800
:10005000A3010008F1060008A301000841020008FE
:10006000A3010008A3010008A3010008A3010008E0
:10007000A3010008A3010008A3010008A3010008D0
:10008000A3010008A3010008A3010008A3010008C0
:10009000A3010008A3010008A3010008A3010008B0
:1000A000A3010008A3010008A3010008A3010008A0
:1000B000A3010008A3010008A3010008A301000890
:1000C000A3010008A3010008A3010008A301000880
:1000D000A3010008A3010008A3010008A301000870
:1000E000A3010008A3010008A301000800F002F822
:1000F00000F03AF80AA090E8000C82448344AAF188
:100100000107DA4501D100F02FF8AFF2090EBAE885
:100110000F0013F0010F18BFFB1A43F0010318473B
:100120000808000028080000103A24BF78C878C1E9
:10013000FAD8520724BF30C830C144BF04680C60ED
:10014000704700000023002400250026103A28BF35
:1001500078C1FBD8520728BF30C148BF0B60704739
:100160001FB51FBD10B510BD00F031F81146FFF7E7
:10017000F7FF00F0B5FB00F04FF803B4FFF7F2FF14
:1001800003BC00F053F800000948804709480047C5
:10019000FEE7FEE7FEE7FEE7FEE7FEE7FEE7FEE737
:1001A000FEE7FEE704480549054A064B7047000094
:1001B00061080008ED0000086800002068060020C3
:1001C000680200206802002070477047704775463B
:1001D00000F028F8AE4605006946534620F00700B7
:1001E000854618B020B5FFF7DDFFBDE820404FF091
:1001F00000064FF000074FF000084FF0000B21F011
:100200000701AC46ACE8C009ACE8C009ACE8C009DD
:10021000ACE8C0098D4670470446AFF30080204625
:10022000FFF7ABFF00487047080000200149182085
:10023000ABBEFEE726000200704700BFFEE7704736
:1002400010B5022000F010F8012804D1024908601E
:10025000022000F003F810BD0000002001490860F2
:100260007047000014040140014600200022074BA3
:100270001B6803EA0102054B14331B680B4013B1E2
:100280000AB1012000E00020704700000004014096
:10029000002123498279002A3AD00A46126803686D
:1002A0009A430B461A600A1D126803689A430B1D95
:1002B0001A60027911440A6803681A430A60184AEE
:1002C0000832126803689A43154B08331A601A1DE6
:1002D000126803689A43124B0C331A604279102A51
:1002E0000ED11A1F126803681A430D4B08331A60A7
:1002F0001A1D126803681A43094B0C331A600DE08B
:100300000749427911440A6803681A430A6005E004
:10031000027911440A6803689A430A607047000032
:100320000004014030B500228B071C0F0F2303FA95
:1003300004F20B4B8C1053F824309343084C8D106F
:1003400044F8253023468C1053F824308C07240FB2
:1003500000FA04F42343024C8D1044F8253030BDDC
:10036000080001402DE9F04102460025002600204A
:1003700000230024002791F803C00CF00F0591F82A
:1003800003C00CF0100CBCF1000F03D091F802C0B8
:100390004CEA050591F800C0BCF1000F31D014689B
:1003A00000202BE04FF0010C0CFA00F3B1F800C074
:1003B0000CEA03069E4220D183004FF00F0C0CFA8A
:1003C00003F7BC4305FA03FC4CEA040491F803C0AC
:1003D000BCF1280F06D14FF0010C0CFA00FCC2F85A
:1003E00014C00AE091F803C0BCF1480F05D14FF0EA
:1003F000010C0CFA00FCC2F810C0401C0828D1D334
:100400001460B1F800C0BCF1FF0F34DD5468002067
:100410002EE000F1080C4FF0010808FA0CF3B1F8D7
:1004200000C00CEA03069E4221D183004FF00F0C5E
:100430000CFA03F7BC4305FA03FC4CEA040491F8F8
:1004400003C0BCF1280F05D100F1080C08FA0CF824
:10045000C2F8148091F803C0BCF1480F07D100F135
:10046000080C4FF0010808FA0CF8C2F81080401C84
:100470000828CED35460BDE8F08141617047016126
:100480007047000005480068012804D10020034996
:100490000860012070470020FCE7000000000020F9
:1004A00000BFFEE71FB50121042000F0BBF80220C9
:1004B000ADF80C0048208DF80F0003208DF80E00D9
:1004C00003A91448FFF74EFF0121084600F0AAF8DF
:1004D00001210020FFF726FF0220019001208DF866
:1004E0000A0000208DF808000C208DF8090001A8F2
:1004F000FFF7CEFE07208DF8000001208DF80300E5
:100500008DF8010000208DF80200684600F046F8E2
:100510001FBD00000008014008B50121042000F0C3
:1005200081F810208DF80300ADF8000003208DF84D
:10053000020069460148FFF715FF08BD00080140A9
:1005400010B510210148FFF798FF10BD00080140C9
:1005500010B510210148FFF792FF10BD00080140BF
:1005600000BFFEE710B5802000F090F870B14FF4A6
:10057000803000F097F80121082000F0D7F8012121
:10058000102000F0D3F8802000F05CF810BD10B50A
:100590004FF4A06000F03AF810BD000070B50021E3
:1005A00000230F22C47804B3154C246804F4E064DB
:1005B000C4F5E064210AC1F10403CA40447804FA96
:1005C00003F184781440214309010E4C0678A155AB
:1005D000047804F01F050124AC4005786D11AD00CE
:1005E00005F1E025C5F8004109E0047804F01F0595
:1005F0000124AC40044D0678761145F8264070BDC4
:100600000CED00E000E400E080E100E0024901437D
:10061000024A1160704700000000FA050CED00E08E
:100620007047000029B1064A92690243044B9A615F
:1006300004E0034A92698243014B9A6170470000CB
:10064000001002400149887270470000001002400B
:1006500010B501460022002300204A11012A02D1D0
:10066000094C236806E0022A02D1074C236A01E004
:10067000054C636A01F01F02012494401C400CB138
:10068000012000E0002010BD0010024001460020C3
:10069000034A92680A400AB1012000E00020704736
:1006A000001002401149096821F480310F4A11609D
:1006B0001146096821F480211160B0F5803F03D014
:1006C000B0F5802F0ED106E00849096841F4803169
:1006D000064A116007E00549096841F4A021034A70
:1006E000116000E000BF00BF704700000010024032
:1006F00010B50820FFF7CAFF48B10820FFF7A2FF96
:100700003120FFF7A5FF10B1012000F01FF81020E5
:10071000FFF7BCFF48B11020FFF794FF3920FFF727
:1007200097FF10B1022000F017F810BD29B1064A5A
:10073000527A0243044B5A7204E0034A527A8243CB
:10074000014B5A72704700000010024001490866D0
:10075000704700000000424201460020034A5068F2
:1007600020F0030008435060704700000010024072
:10077000704710B500F002F810BD00000CB5002065
:10078000019000903348006840F48030314908609F
:1007900000BF3048006800F4003000900198401C11
:1007A0000190009818B90198B0F5A06FF1D12948CF
:1007B000006800F4003010B10120009001E000203A
:1007C00000900098012843D12348006840F01000B1
:1007D000214908600846006820F0030008600846C8
:1007E000006840F0020008601A48406819494860F3
:1007F0000846406848600846406840F480604860A9
:100800000846406820F47C1048600846406840F480
:10081000E81048600846006840F08070086000BF3B
:100820000C48006800F000700028F9D009484068C2
:1008300020F00300074948600846406840F0020085
:10084000486000BF0348406800F00C000828F9D158
:100850000CBD000000100240002002407047000064
:1008600010B51348006840F00100114908600846BF
:100870004068104908400E494860084600680E4923
:1008800008400B4908600846006820F48020086092
:100890000846406820F4FE0048604FF41F0088605E
:1008A000FFF767FF4FF000600449086010BD0000CB
:1008B000001002400000FFF8FFFFF6FE08ED00E028
:1008C00000BFFEE7002107E0002200E0521C42F2D8
:1008D00010739A42FADB491C8142F5DB7047000035
:1008E000FFF755FEFFF718FEFFF7DCFD002418E0C8
:1008F000FFF7C8FD0446012C07D10A48006808B973
:10090000012000E00020074908600648006810B197
:10091000FFF71EFE01E0FFF713FE4FF47A70FFF7BA
:10092000D1FFE5E70400002048090008000000208E
:1009300008000000280100085009000808000020F5
:1009400060060000440100080000000000000000F4
:04000005080000ED02
:00000001FF
